:020000040800F2
:10000000004000205D080008A3080008A5080008BB
:10001000A7080008A9080008AB08000800000000B5
:10002000000000000000000000000000AD08000813
:10003000AF08000800000000B1080008B30800087D
:10004000B5080008B7080008B9080008BB08000890
:10005000BD080008BF080008C1080008C308000860
:10006000C5080008C7080008C9080008CB08000830
:10007000CD080008CF080008D1080008D308000800
:10008000D5080008D7080008D9080008DB080008D0
:10009000DD080008DF080008E1080008E3080008A0
:1000A000E5080008E7080008E9080008EB08000870
:1000B000ED080008EF080008F1080008F308000840
:1000C000F5080008F7080008F9080008FB08000810
:1000D000FD080008FF0800080109000803090008DE
:1000E0000509000807090008090900080B090008AC
:1000F0000D0900080F09000811090008130900087C
:1001000000000000000000000000000015090008C9
:1001100017090008190900081B0900081D09000833
:100120001F09000821090008230900082509000803
:10013000270900082909000800000000000000004D
:100140002B0900082D0900082F09000800000000F5
:10015000000000000000000000000000000000009F
:100160000000000000000000310900083309000809
:100170003509000800000000000000000000000039
:10018000000000003709000810B5054C237833B98A
:10019000044B13B10448AFF300800123237010BD5A
:1001A0009800002000000000B0150008084B10B5B2
:1001B0001BB108490848AFF300800848036803B939
:1001C00010BD074B002BFBD0BDE81040184700BF07
:1001D000000000009C000020B015000898000020DE
:1001E00000000000154B002B08BF134B9D46A3F5E4
:1001F000803A00218B460F461348144A121A00F029
:1002000033FC0F4B002B00D098470E4B002B00D037
:1002100098470020002104000D000D48002802D05E
:100220000C48AFF3008000F0F9FB2000290000F03B
:1002300005FB00F0DFFB00BF0000080000400020CD
:10024000000000000000000098000020C400002012
:1002500000000000000000000022F0B51346012657
:10026000032704E00133102B02F1020224D00D68B1
:1002700006FA03F434EA0505F4D10D79013D012DA8
:1002800007FA02F519D9ED430468254005600C7999
:10029000056894402C430460C46807FA02F524EA18
:1002A0000504C460CC79C568944001332C43102BFD
:1002B000C46002F10202DAD1F0BDD0F808E007FA1A
:1002C00002F5ED430EEA050EC0F808E091F805E0EE
:1002D000D0F808C00EFA02FE4EEA0C0EC0F808E094
:1002E000B0F804E01FFA8EFE2EEA040484808C79B4
:1002F000B0F804E09C4044EA0E04A4B28480C3E752
:1003000000234FF6FF710222016042710371837175
:10031000C3717047038A194214BF0120002070473F
:10032000F0B5A14A536803F00C03042B02D0082B4C
:1003300000F0F5809D4A026000259B4CDFF874C2F6
:100340006368DFF874E2C3F303131CF80370FFB2B1
:1003500022FA07F343606168C1F302211CF801101F
:1003600023FA01F181606668C6F3C2261CF80660B4
:10037000F6B2F340C360E46AC4F304143EF81440D8
:10038000A4B214F0100F1CBFB5FBF4F40461864C4A
:1003900008BF0261E46AC4F344243EF81440A4B2E6
:1003A00014F0100F1CBFB5FBF4F444617E4C08BF81
:1003B0004261246BE4065CBF7C4C84617A4C48BF8C
:1003C0008261246BA4065CBF784CC461764C48BF44
:1003D000C261D4F830E01EF4807F49D0954200F02D
:1003E000B8800362246B43626F4C256BAD0711D05C
:1003F000236B03F00303012B00F0B680236B03F0A3
:100400000303022B00F0BB80236B03F00303032BD9
:1004100001D1664B8362644B1C6B14F4403F31D1B5
:10042000C162614B1C6B14F4402F44D101635E4BDD
:100430001C6B14F4401F57D141635B4B1C6B14F4CD
:10044000400F6AD0196B01F44001B1F5800F00F044
:1004500091801A6B02F44002B2F5000F00F09F8009
:100460001B6B03F44003B3F5400F00F08580F0BD33
:100470000362246BA405B6D59542B4D1B742B2D17C
:1004800055006FE01C6B04F44034B4F5803F5AD043
:100490001C6B04F44034B4F5003F78D01B6B03F4BC
:1004A0004033B3F5403F04BF404BC3623E4B1C6B2F
:1004B00014F4402FBAD01C6B04F44024B4F5802F00
:1004C00045D01C6B04F44024B4F5002F5BD01B6BAB
:1004D00003F44023B3F5402F04BF344B0363324B86
:1004E0001C6B14F4401FA7D01C6B04F44014B4F52B
:1004F000801F2AD01C6B04F44014B4F5001F4AD0AE
:100500001B6B03F44013B3F5401F04BF274B436339
:10051000254B1C6B14F4400F94D18163F0BD5568DA
:100520005368C5F38345DB0305F102011ED5D36A89
:100530001E4D03F00F030133B5FBF3F301FB03F58D
:1005400005602A46F9E6C2626BE7426375E702631B
:100550006DE7B7427FF445AF55000562246BA605F1
:100560007FF541AF45623FE7826254E7104B03FBE2
:1005700001F5E5E78263F0BD0C4B8363F0BD4FF4FA
:100580000043836247E74FF4004303634FE74FF4B0
:100590000043C36245E74FF4004343634DE74FF424
:1005A00000438363F0BD00BF0010024000127A00D8
:1005B00000093D001C0000200000002029B9054A68
:1005C000536923EA000050617047024B5A69104397
:1005D0005861704700100240C1F30801018570475F
:1005E000C3690B4214BF012000207047014608B5C3
:1005F0000448FFF7F1FF80210248FFF7F1FF0028D0
:10060000F9D008BD0044004070B51E1E13DD14462D
:10061000951903E0FFF7EAFFAC420CD014F8010B88
:100620000A28F7D10D20FFF7E1FF14F8010CFFF7BE
:10063000DDFFAC42F2D1304670BD00BF70B5454E13
:10064000454C336890B005460021986800F076FA72
:1006500033680021586800F071FA404A536943F446
:1006600000335361D1694FF0904341F40031D161BF
:100670001A6A22F470621A621A6A42F4E0621A621A
:100680001A6A22F470421A621A6A42F4E0421A624A
:100690009A6822F0F0029A609A6842F050029A60DA
:1006A0009A8822F00C021204120C9A809A8892B254
:1006B0009A801A6822F0F0021A601A6842F0A002CA
:1006C0001A60DA6822F0F002DA60DA6842F050026A
:1006D000DA60236823F001032360636823F4405346
:1006E000636063686360236823F4B05323F00C03F2
:1006F00023602368236023682360236843F00C038E
:100700002360A36823F44073A360A368A36001A8D7
:10071000FFF706FE23680C9A190448BF5200B2FB8B
:10072000F5F305FB1322B2EB550F0B4A126828BFF5
:100730000133120405D54FF6F0721A40C3F3420399
:100740001343054A9BB29381136843F0010313607E
:1007500010B070BD8C00002000440040001002402A
:100760002DE9F041012182B04FF40020FFF726FF70
:1007700001214FF48020FFF721FF01214FF40030C9
:10078000FFF71CFF6846FFF7BBFD0224002510237E
:100790006946DFF8848000934FF090408DF8045054
:1007A0008DF80740FFF758FD6846FFF7A9FD0126C1
:1007B00069464046174F8DF804508DF80740009663
:1007C000FFF74AFD6846FFF79BFD20236946384640
:1007D00000938DF804508DF80740FFF73DFD684603
:1007E000FFF78EFD694640468DF804508DF80740AE
:1007F0000094FFF731FD6846FFF782FD69463846F1
:100800008DF804508DF807400096FFF725FD02B0E3
:10081000BDE8F081000400480008004808B5102138
:100820004FF09040FFF776FD012800D008BD024848
:10083000BDE8084000F07AB9241500084FF41650BE
:1008400008B5FFF7FBFEFFF78BFF034800F06EF9DA
:10085000FFF7E4FFFCE700BF401500080649074A20
:10086000074B9A42BEBF51F8040B42F8040BF8E75D
:100870000448804704480047BC15000800000020D9
:100880009800002041090008E50100082A492B4A88
:10089000002301E041F8043B9142FBD3FFF7CEFF78
:1008A000FEE7FEE7FEE7FEE7FEE7FEE7FEE7FEE720
:1008B000FEE7FEE7FEE7FEE7FEE7FEE7FEE7FEE710
:1008C000FEE7FEE7FEE7FEE7FEE7FEE7FEE7FEE700
:1008D000FEE7FEE7FEE7FEE7FEE7FEE7FEE7FEE7F0
:1008E000FEE7FEE7FEE7FEE7FEE7FEE7FEE7FEE7E0
:1008F000FEE7FEE7FEE7FEE7FEE7FEE7FEE7FEE7D0
:10090000FEE7FEE7FEE7FEE7FEE7FEE7FEE7FEE7BF
:10091000FEE7FEE7FEE7FEE7FEE7FEE7FEE7FEE7AF
:10092000FEE7FEE7FEE7FEE7FEE7FEE7FEE7FEE79F
:10093000FEE7FEE7FEE7FEE798000020C400002087
:1009400010B4274B274A18682749284C40F001006B
:100950001860586802405A601A6822F0847222F4C3
:1009600080321A601A6822F480221A605A6822F4CF
:10097000FE025A60DA6A22F00F02DA621A6B002075
:10098000114012221963986022605A685A605A68AE
:100990005A605A6842F480625A605A6822F47C12A3
:1009A0005A605A6842F460125A601A6842F08072C3
:1009B0001A6019680A4A8901FBD5536823F00303BA
:1009C0005360536843F002035360536803F00C0311
:1009D000082BFAD1064B4FF000629A6010BC7047AA
:1009E000001002400CC07FF8CCFC00FF0020024049
:1009F00000ED00E008B5074B044613B10021AFF34A
:100A00000080054B1868836A03B19847204600F0C0
:100A10007BFD00BF000000004C15000870B50E4BB8
:100A20000E4CE41AA41000251E46A54204D056F828
:100A3000253098470135F8E700F068FD084C094B70
:100A4000E41AA41000251E46A54204D056F825300D
:100A500098470135F8E770BD900000209000002015
:100A6000940000209000002002440346934202D0EC
:100A700003F8011BFAE7704770B50E46054618B13A
:100A800083690BB900F0C0FAAB69AC6813B92846AA
:100A900000F0BAFA224B9C4201D16C6808E0214B6D
:100AA0009C4201D1AC6803E01F4B9C4208BFEC683C
:100AB000A3891B0701D523693BB92146284600F0CD
:100AC00043F910B14FF0FF3070BD013EA36816F836
:100AD000011F013BA36091B1002B04DAA26993428C
:100AE00006DB0A2904D023685A1C22601970EDE73E
:100AF0002246284600F0D4F80130E7D1E2E7002B87
:100B000008DA22460A21284600F0CAF80130D9D076
:100B10000A2070BD23680A205A1C2260187070BD1C
:100B2000501500087015000890150008024B01468A
:100B30001868FFF7A1BF00BF8C00002000294FF408
:100B400080630CBF0222002200F000B82DE9F743B9
:100B50001D464F4B1E6804460F46904626B1B369AA
:100B600013B9304600F050FA4A4B9C4201D17468E8
:100B700008E0494B9C4201D1B46803E0474B9C42DA
:100B800008BFF468B8F1020F04D0B8F1010F79D8AA
:100B9000002D77DB2146304600F0CCF9616B41B186
:100BA00004F14403994202D0304600F01FFB0023B9
:100BB00063630023A3616360A3891B0603D52169D6
:100BC000304600F013FBA38923F44A6323F00303A8
:100BD000B8F1020FA3811ED001AB6A462146304610
:100BE00000F09CFAA3891843A0810DB9009D00E094
:100BF0002FBB284600F0F2FA0746D0B9DDF8009086
:100C0000A94502D14FF0FF3006E0484600F0E6FA71
:100C1000074678B9F6E70020A38943F00203A381D1
:100C20000023A36004F14703236023610123636170
:100C30002AE0A946A38943F08003A3814D46B36906
:100C400013B9304600F0E0F9B8F1010F08BFA389ED
:100C5000276004BF43F00103A381A389276103F048
:100C6000080080B2656158B113F001034FF0000035
:100C70001DBF6D42A060A561A56008BF184603E0D6
:100C8000A06001E04FF0FF3003B0BDE8F08300BF8B
:100C90008C00002050150008701500089015000801
:100CA000F8B50F461446064618B183690BB900F033
:100CB000ABF9224B9C4201D1746808E0204B9C4266
:100CC00001D1B46803E01F4B9C4208BFF468A369DC
:100CD000A360A3891A0709D523693BB1236820695A
:100CE000181A63699842FDB20FDB08E021463046CE
:100CF00000F02AF80028F1D04FF0FF30F8BD21466F
:100D0000304600F017F90028F6D1A368013BA36034
:100D100023685A1C22601F706269431C934204D0EE
:100D2000A389DB0707D50A2D05D12146304600F0FF
:100D300001F90028E0D12846F8BD00BF5015000891
:100D40007015000890150008324B70B51D680646F6
:100D50000C4625B1AB6913B9284600F055F92E4B66
:100D60009C4201D16C6808E02C4B9C4201D1AC68DC
:100D700003E02B4B9C4208BFEC68B4F90C309AB2EC
:100D800015071DD4D00602D4092232603AE051077B
:100D900012D5616B41B104F14403994202D030464F
:100DA00000F024FA00236363A38923F02403A381C2
:100DB0000023636023692360A38943F00803A381B0
:100DC00023694BB9A38903F42073B3F5007F03D0E3
:100DD0002146304600F0C6F9A28912F0010305D081
:100DE0000023A36063695B42A36103E0920758BFDD
:100DF0006369A36023695BB9B4F90C3003F0800028
:100E000080B230B143F04003A3814FF0FF3070BD9A
:100E1000002070BD8C0000205015000870150008DF
:100E2000901500088A892DE9F041054610070C4607
:100E300059D44B68002B02DC0B6C002B17DDE66AE3
:100E4000AEB102F48052002392B22F682B600AB137
:100E5000606D15E0216A01232846B047411C0FD17F
:100E60002B686BB11D2B01D0162B03D12F600020F6
:100E7000BDE8F081A38943F04003A381BDE8F08180
:100E8000A3895A0705D56368C01A636B0BB1236C3D
:100E9000C01A00230246E66A216A2846B047431C6E
:100EA000A38906D129681D293AD8214ACA40D60704
:100EB00036D500226260D9042269226004D5421C22
:100EC00001D12B6803B96065616B2F600029CED01A
:100ED00004F14403994202D0284600F087F900202B
:100EE0006063BDE8F0810F69002FC0D093070E68E2
:100EF00008BF4B690F6018BF0023C7EB06088B6063
:100F000002E00744C0EB0808B8F1000FAFDD43462C
:100F10003A46216AA66A2846B0470028F1DCA38930
:100F200043F04003A3814FF0FF30BDE8F08100BFE4
:100F30000100402038B50B6905460C46DBB118B1FD
:100F400083690BB900F060F80C4B9C4201D16C68CE
:100F500008E00B4B9C4201D1AC6803E0094B9C427A
:100F600008BFEC68B4F90C302BB121462846BDE827
:100F70003840FFF757BF002038BD00BF50150008AC
:100F80007015000890150008014900F0A9B800BFCD
:100F9000350F0008002310B50446036043608360EA
:100FA00081814366C28103614361836119460822DE
:100FB0005C30FFF759FD054B6362054BA362054B9F
:100FC000E362054B2462236310BD00BF6513000874
:100FD00087130008BF130008E313000870B56823E7
:100FE0004D1E5D430E4605F1740100F04DF90446B7
:100FF00040B1002180E842000C30A06005F1680299
:10100000FFF732FD204670BD836910B5044633BB3F
:101010008364C3640365124B124A1B688262984260
:1010200004BF0123836100F01FF86060204600F0D8
:101030001BF8A060204600F017F80022E0600421B1
:101040006068FFF7A7FF01220921A068FFF7A2FF50
:1010500002221221E068FFF79DFF0123A36110BD6A
:101060004C150008890F0008F8B51C4B1E68B369C1
:10107000074613B93046FFF7C7FF4836B4687368B0
:10108000013B04D4B4F90C507DB16834F8E73368FF
:101090000BB13668F2E704213846FFF79FFF306056
:1010A0000028F6D10C233B60F8BD4FF6FF73E381B7
:1010B0000123A38165662560A56065602561656182
:1010C000A5610822294604F15C00FFF7CDFC6563A9
:1010D000A563A564E5642046F8BD00BF4C15000873
:1010E0002DE9F8438046894600F14804002694B172
:1010F000A5686768013F0CD4AB89012B07D9B5F906
:101100000E30013303D029464046C84706436835B0
:10111000F0E72468EBE73046BDE8F88370B50E468B
:10112000B1F90E10002990B014461D4606DA0023CE
:101130002B60B3891A060ED540230EE001AA00F0F9
:1011400065F90028F3DB029A02F47042A2F500531D
:101150005A425A412A604FF480630020236010B045
:1011600070BD00008B8973B59E0705460C4610D4F0
:1011700001AB6A46FFF7D2FF00990646284600F009
:1011800083F868B9B4F90C309A0522D443F002030D
:10119000A38104F14703236023610123636118E005
:1011A0000D4BAB62A389206043F08003A381009BB9
:1011B0006361019B20614BB1B4F90E10284600F029
:1011C00037F918B1A38943F00103A381A089304303
:1011D000A08102B070BD00BF890F0008024B01461C
:1011E000186800F051B800BF8C00002038B50546E3
:1011F000002946D051F8043C0C1F002BB8BFE4185E
:1012000000F038F91F4A1368114613B9636014607F
:1012100032E0A3420ED92268A018834204BF1868A6
:101220005B68636004BF121822600C6024E0A24275
:1012300003D813465A68002AF9D118681918A14230
:101240000BD12168014458188242196014D11068EA
:1012500052685A60014419600EE002D90C232B60D9
:101260000AE021686018824204BF10685268626018
:1012700004BF091821605C602846BDE8384000F0D2
:10128000FAB838BDB800002070B5CD1C25F00305B4
:1012900008350C2D38BF0C25002D064601DBA94270
:1012A00002D90C23336046E000F0E4F8234B1C68BD
:1012B0001A462146A1B10B685B1B0ED40B2B03D938
:1012C0000B60CC18CD501EE08C420DBF63684B689C
:1012D0006360136018BF0C4615E00C464968E9E7E7
:1012E000174C23681BB9304600F02CF820602946C3
:1012F000304600F027F8431C18D0C41C24F0030427
:10130000A0420DD12560304600F0B5F804F10B0085
:10131000231D20F00700C31A0ED05A42E25070BDC0
:10132000211A304600F00EF80130EBD10C23336067
:10133000304600F0A0F8002070BD00BFB8000020CB
:10134000B400002038B5064C00230546084623604B
:1013500000F0CCF8431C02D1236803B12B6038BDE8
:10136000C000002010B50C46B1F90E1000F084F852
:101370000028ABBF636DA3891B1823F48053ACBF57
:101380006365A38110BD2DE9F0411F468B89DB0504
:1013900005460C46164605D502230022B1F90E106B
:1013A00000F056F8A389B4F90E1023F48053A381FA
:1013B00032463B462846BDE8F041FFF725B910B557
:1013C0000C46B1F90E1000F043F8431CA38915BF79
:1013D000606523F4805343F48053A38118BFA38135
:1013E00010BDB1F90E1000F001B8000038B5064C80
:1013F000002305460846236000F050F8431C02D144
:10140000236803B12B6038BDC000002038B5074CFD
:101410000023054608461146236000F047F8431CA8
:1014200002D1236803B12B6038BD00BFC00000208B
:1014300038B5064C002305460846236000F03EF808
:10144000431C02D1236803B12B6038BDC0000020CB
:1014500038B5074C054608461146002222601A4658
:1014600000F034F8431C02D1236803B12B6038BD6F
:10147000C00000207047704738B5074C0546084645
:101480001146002222601A4600F028F8431C02D1BF
:10149000236803B12B6038BDC0000020024B5822E6
:1014A0001A604FF0FF307047C0000020024B5822F6
:1014B0001A604FF0FF307047C0000020024B5822E6
:1014C0001A600020704700BFC0000020024B582265
:1014D0001A604FF0FF307047C0000020024B5822C6
:1014E0001A604FF0FF307047C0000020044B1968AD
:1014F000024609B903491960186802441A60704726
:10150000BC000020C8000020FEE70000F8B500BFC6
:10151000F8BC08BC9E467047F8B500BFF8BC08BCD4
:101520009E467047546865204750494F2069732094
:1015300070756C6C656420757021212100000000BD
:101540004C756B6521000000430000002C0000205A
:10155000000000000000000000000000000000008B
:10156000000000000000000000000000000000007B
:10157000000000000000000000000000000000006B
:10158000000000000000000000000000000000005B
:10159000000000000000000000000000000000004B
:1015A000000000000000000000000000000000003B
:0415B0000000000037
:0815B40030ECFF7F0100000094
:1015BC000000010002000400060008000A000C00F4
:1015CC00100020004000800000010000000000001E
:1015DC0001020304010203040607080900000000CD
:1015EC005015000870150008901500080000000048
:1015FC00000000000000000000000000481500087A
:10160C0000000000000000000000000000000000CE
:10161C0000000000000000000000000000000000BE
:10162C0000000000000000000000000000000000AE
:10163C000000000000000000000000002C00002052
:08164C00AD010008890100084E
:0400000508000000EF
:00000001FF
