:020000040800F2
:10000000004000206D110008B3110008B511000870
:10001000B7110008B9110008BB110008000000006A
:10002000000000000000000000000000BD110008FA
:10003000BF11000800000000C1110008C311000832
:10004000C5110008C7110008C9110008CB1100082C
:10005000CD110008CF110008D1110008D3110008FC
:10006000D5110008D7110008D9110008DB110008CC
:10007000DD110008DF110008E1110008E31100089C
:10008000E5110008E7110008E9110008EB1100086C
:10009000ED110008EF110008F1110008F31100083C
:1000A000F5110008F7110008F9110008FB1100080C
:1000B00045100008FF110008011200080312000893
:1000C0000512000807120008091200080B120008A8
:1000D0000D1200080F120008111200081312000878
:1000E0001512000817120008191200081B12000848
:1000F0001D1200081F120008211200082312000818
:1001000000000000000000000000000025120008B0
:1001100027120008291200082B1200082D120008CF
:100120002F1200083112000833120008351200089F
:10013000371200083912000800000000000000001B
:100140003B1200083D1200083F12000800000000AA
:10015000000000000000000000000000000000009F
:1001600000000000000000004112000843120008D7
:100170004512000800000000000000000000000020
:10018000000000004712000810B5054C237833B971
:10019000044B13B10448AFF300800123237010BD5A
:1001A000D800002000000000DC4F0008084B10B50C
:1001B0001BB108490848AFF300800848036803B939
:1001C00010BD074B002BFBD0BDE81040184700BF07
:1001D00000000000DC000020DC4F0008D8000020F8
:1001E00000000000154B002B08BF134B9D46A3F5E4
:1001F000803A00218B460F461348144A121A01F028
:1002000010FD0F4B002B00D098470E4B002B00D059
:1002100098470020002104000D000D48002802D05E
:100220000C48AFF3008001F0CBFC2000290000F067
:1002300095FF01F0B1FC00BF000008000040002065
:100240000000000000000000D80000204C03002047
:100250000000000000000000F0B401F10C021CCA14
:100260000F684D688E683D4335432A43C66842EAAD
:1002700003058A69074B2C43224333401343C36071
:100280000A7F036B013A23F00F0313430363F0BCAF
:10029000704700BF07C0FFFD002301220277036003
:1002A00043608360C360036143618361704700BF43
:1002B000836819B943F002038360704743F0010378
:1002C00083607047836843F000438360704700BFDA
:1002D000836823F08043836083681943816070479B
:1002E0008068C00F704700BF8068C0F3400070474F
:1002F000836823F040538360836819B943F0005347
:100300008360704743F0805383607047042A30B4A1
:100310001FD802EB42025200056B1F24944025EACD
:10032000040401FA02F222430263092922D80139A6
:100330004269446901EB410138228A4024EA020201
:1003400042614269033103FA01F11143416130BC5A
:100350007047092A1ED8053A02EB42025200456B4B
:100360001F24944025EA040401FA02F222430929D9
:100370004263DCD90A398269846901EB41010722B1
:100380008A4024EA0202826182698B4013438361BE
:1003900030BC70470E2A0DD80A3A02EB42025200D6
:1003A000856B1F24944025EA040401FA02F22243DB
:1003B0008263BAE70F3A02EB42025200C56B1F2478
:1003C000944025EA040401FA02F22243C263ACE736
:1003D000836843F004038360704700BF006C80B201
:1003E000704700BF03680B4214BF01200020704714
:1003F0000022F0B513460126032704E00133102B39
:1004000002F1020224D00D6806FA03F434EA05056D
:10041000F4D10D79013D012D07FA02F519D9ED430B
:100420000468254005600C79056894402C430460FD
:10043000C46807FA02F524EA0504C460CC79C568EB
:10044000944001332C43102BC46002F10202DAD134
:10045000F0BDD0F808E007FA02F5ED430EEA050E0C
:10046000C0F808E091F805E0D0F808C00EFA02FEE6
:100470004EEA0C0EC0F808E0B0F804E01FFA8EFE59
:100480002EEA040484808C79B0F804E09C4044EAAD
:100490000E04A4B28480C3E700234FF6FF7102224A
:1004A0000160427103718371C3717047C3785BB996
:1004B000037817485A09203203F01F03012101FA7B
:1004C00003F340F822307047F0B4124B8278D968B9
:1004D000467804780E4DC943C1F302210F23C1F1C0
:1004E0000407CB40BE401340334304F1604202F5A1
:1004F00061421B01DBB282F800330378012203F072
:100500001F015B098A4045F82320F0BC704700BFFB
:1005100000E100E000ED00E0F0B5A14A536803F00F
:100520000C03042B02D0082B00F0F5809D4A0260DA
:1005300000259B4CDFF874C26368DFF874E2C3F3F4
:1005400003131CF80370FFB222FA07F343606168DB
:10055000C1F302211CF8011023FA01F181606668E1
:10056000C6F3C2261CF80660F6B2F340C360E46A24
:10057000C4F304143EF81440A4B214F0100F1CBFCE
:10058000B5FBF4F40461864C08BF0261E46AC4F36D
:1005900044243EF81440A4B214F0100F1CBFB5FB65
:1005A000F4F444617E4C08BF4261246BE4065CBFF6
:1005B0007C4C84617A4C48BF8261246BA4065CBF8A
:1005C000784CC461764C48BFC261D4F830E01EF468
:1005D000807F49D0954200F0B8800362246B43626B
:1005E0006F4C256BAD0711D0236B03F00303012B78
:1005F00000F0B680236B03F00303022B00F0BB80F6
:10060000236B03F00303032B01D1664B8362644B1E
:100610001C6B14F4403F31D1C162614B1C6B14F46C
:10062000402F44D101635E4B1C6B14F4401F57D123
:1006300041635B4B1C6B14F4400F6AD0196B01F4DF
:100640004001B1F5800F00F091801A6B02F4400276
:10065000B2F5000F00F09F801B6B03F44003B3F56D
:10066000400F00F08580F0BD0362246BA405B6D571
:100670009542B4D1B742B2D155006FE01C6B04F47F
:100680004034B4F5803F5AD01C6B04F44034B4F5C8
:10069000003F78D01B6B03F44033B3F5403F04BFF9
:1006A000404BC3623E4B1C6B14F4402FBAD01C6B02
:1006B00004F44024B4F5802F45D01C6B04F440248E
:1006C000B4F5002F5BD01B6B03F44023B3F5402F30
:1006D00004BF344B0363324B1C6B14F4401FA7D090
:1006E0001C6B04F44014B4F5801F2AD01C6B04F476
:1006F0004014B4F5001F4AD01B6B03F44013B3F54C
:10070000401F04BF274B4363254B1C6B14F4400F61
:1007100094D18163F0BD55685368C5F38345DB030D
:1007200005F102011ED5D36A1E4D03F00F030133FC
:10073000B5FBF3F301FB03F505602A46F9E6C26257
:100740006BE7426375E702636DE7B7427FF445AF3D
:1007500055000562246BA6057FF541AF45623FE772
:10076000826254E7104B03FB01F5E5E78263F0BDBD
:100770000C4B8363F0BD4FF40043836247E74FF4B3
:10078000004303634FE74FF40043C36245E74FF470
:10079000004343634DE74FF400438363F0BD00BF64
:1007A0000010024000127A0000093D001C000020E9
:1007B00000000020064A030FD36A14BF23F47853C5
:1007C00023F4F873D362024AD36A1843D0627047A5
:1007D0000010024029B9054A536923EA000050611C
:1007E0007047024B5A69104358617047001002402D
:1007F00029B9054AD36923EA0000D0617047024B4A
:10080000DA691043D86170470010024001737047E5
:100810000389194214BF012000207047264A03882B
:1008200090429BB238D002F50062904234D0B0F1D1
:10083000804F31D0A2F5983290422DD002F58062DF
:10084000904229D01D4A90422DD002F580629042FC
:1008500029D00A8923F440739BB2134303804B6869
:10086000C36210B4144C0B880385A0420ED0144B05
:1008700098420BD003F54063984207D003F580639C
:10088000984203D003F58063984201D18B7A0386A6
:100890000123436110BC70474A8823F0700313435F
:1008A000064A9042D1D103804B68C3620B8803850E
:1008B00001234361704700BF002C0140001000403D
:1008C0000034014000234FF0FF3242600380038177
:1008D00043808372704700BF038829B923F0010366
:1008E0001B041B0C038070479BB243F00103038081
:1008F000704700BFC94389B2016170472AB9C36814
:10090000C94389B21940C1607047C3681943C160C7
:10091000704700BFFFF7F2BFC1F3080101857047C0
:10092000C3690B4214BF012000207047014608B57F
:100930000448FFF7F1FF80210248FFF7F1FF00288C
:10094000F9D008BD0044004070B51E1E13DD1446EA
:10095000951903E0FFF7EAFFAC420CD014F8010B45
:100960000A28F7D10D20FFF7E1FF14F8010CFFF77B
:10097000DDFFAC42F2D1304670BD00BF70B5454ED0
:10098000454C336890B005460021986801F022FE7E
:1009900033680021586801F01DFE404A536943F452
:1009A00000335361D1694FF0904341F40031D1617C
:1009B0001A6A22F470621A621A6A42F4E0621A62D7
:1009C0001A6A22F470421A621A6A42F4E0421A6207
:1009D0009A6822F0F0029A609A6842F050029A6097
:1009E0009A8822F00C021204120C9A809A8892B211
:1009F0009A801A6822F0F0021A601A6842F0A00287
:100A00001A60DA6822F0F002DA60DA6842F0500226
:100A1000DA60236823F001032360636823F4405302
:100A2000636063686360236823F4B05323F00C03AE
:100A300023602368236023682360236843F00C034A
:100A40002360A36823F44073A360A368A36001A894
:100A5000FFF762FD23680C9A190448BF5200B2FBED
:100A6000F5F305FB1322B2EB550F0B4A126828BFB2
:100A70000133120405D54FF6F0721A40C3F3420356
:100A80001343054A9BB29381136843F0010313603B
:100A900010B070BD940000200044004000100240DF
:100AA00010B50F4A938A23F040031B041B0C044625
:100AB000938202210B48FFF7ABFE0128F9D12146B2
:100AC0000848FFF7A3FE02210648FFF7A1FE012810
:100AD000F9D1034A938A9BB243F04003938210BD3D
:100AE0000004004800380040F8B54FF09044064636
:100AF000A38A23F480731B041B0CA3820020FFF73E
:100B0000CFFF1020FFF7CCFFB020FFF7C9FFA38A6B
:100B10009BB243F48073A382751E06F17F0415F81F
:100B2000010FFFF7BDFFAC42F9D14FF09045002017
:100B3000AB8A23F480731B041B0CAB82FFF7B0FF5E
:100B40001020FFF7ADFFB120FFF7AAFFAB8A9BB2E1
:100B500043F48073AB8206F1FF0514F8010FFFF731
:100B60009FFFA542F9D14FF090440020A38A23F4BF
:100B700080731B041B0CA382FFF792FF1020FFF76A
:100B80008FFFB220FFF78CFFA38A9BB243F48073E0
:100B9000A38206F27F1415F8010FFFF781FFA5422B
:100BA000F9D14FF090470020BB8A23F480731B04D7
:100BB0001B0CBB82FFF774FF1020FFF771FFB320FF
:100BC000FFF76EFFBB8A9BB243F4807306F2FF15FA
:100BD000BB8214F8010FFFF763FFAC42F9D1F8BDF7
:100BE00008B54FF09041264A8B8A23F480731B048A
:100BF0001B0C8B82938A9BB243F040039382938AAF
:100C000023F480431B041B0C938241F2482300BF52
:100C1000013BFCD11A491B4B8A8A92B242F48042B2
:100C20008A8200BF013BFCD14FF09042AE20938AF4
:100C300023F480731B041B0C9382FFF731FFA22067
:100C4000FFF72EFFA020FFF72BFFC820FFF728FF9C
:100C50002220FFF725FF2F20FFF722FF4020FFF77C
:100C60001FFFAF20FFF71CFF8120FFF719FF1720A0
:100C7000FFF716FFA620BDE80840FFF711BF00BF31
:100C80000004004870F3050010B46749674B4869D9
:100C9000674A40F4C0204861C86940F48040C86198
:100CA000596A21F470015962596A41F4A0015962EC
:100CB000596A21F070415962596A41F0A041596264
:100CC000996821F04C419960996841F08841996098
:100CD000998845F6FF7001409980998889B299807A
:100CE000196821F04C411960196841F008411960F8
:100CF000D96821F04C41D960D968D960996821F050
:100D000030219960996841F010219960998821F407
:100D1000804121F040010904090C9980998889B229
:100D20009980196821F030211960196841F010216B
:100D30001960D96821F03021D960D968D9604FF0A5
:100D4000904107208C68A40CA4048C608C6844F447
:100D500080348C608C8804F47E448C808C88A4B2AF
:100D60008C800C68A40CA4040C600C6844F48034DF
:100D70000C600C6824F0F0040C600C6844F0A004D3
:100D80000C60CC68A40CA404CC60CC68CC60998ABC
:100D900089B241F040019982138803F441531380D2
:100DA00013889BB2138013889BB243F48273138021
:100DB00013889BB243F00203138013889BB243F065
:100DC0000103138013889BB243F4007313801388CC
:100DD0009BB243F00803138013889BB2138093885F
:100DE00023F470631B041B0C938093889BB243F421
:100DF000E0639380938B23F400631B041B0C9383A9
:100E00001082938823F480531B041B0C93809388D7
:100E10009BB243F48053938013889BB243F040030A
:100E2000138010BCFFF7DCBE001002400004004835
:100E300000380040002A35D003789BB3F0B5002776
:100E400002443E46184D01E0037853B3203B03EBC8
:100E50008303CC19EB5CCB550378203B03EB830376
:100E60002B4486465B7863700378203B03EB830357
:100E70002B4406379B78A37010F8013B203B03EB13
:100E800083032B448242DB78E3709EF80030667166
:100E9000A3F1200303EB83032B44FFB21B792371DF
:100EA000D2D1F0BD704700BFC44B0008F0B5C1B04F
:100EB000154607460E4668464FF4807200211C46D0
:100EC00000F0AFFE38466946FF22FFF7B3FF05EB9F
:100ED000C4103044C5F18002694600F097FE41B06D
:100EE000F0BD00BF012208B54FF0A040114600231D
:100EF000FFF70CFA4FF0A040FFF76AFA04214FF019
:100F0000A040FFF76FFA0028F8D04FF0A040FFF79D
:100F100065FA00F099FC014B186008BD3000002014
:100F200070B54FF4A0708AB0FFF744FC01214FF078
:100F30008050FFF74FFC01214FF40030FFF74AFCCF
:100F40006846FFF7A9FA0326694601244FF090404E
:100F50008DF804600094FFF74BFA6846FFF79CFA9F
:100F6000022569464FF090408DF804600095FFF728
:100F70003FFA02A8FFF790F9002302A94FF0A04022
:100F80008DF82450029303930493FFF765F92146EB
:100F90004FF0A040FFF78CF901214FF0A040FFF780
:100FA00021FA0028F8D001214FF0A040FFF7A0F966
:100FB00000214FF0A040FFF77BF94FF0A040FFF772
:100FC00093F90028F9D101464FF0A040FFF780F9CE
:100FD0004FF0A040FFF776F94FF0A040FFF780F9FF
:100FE0000028F9D101214FF0A040FFF761F901215C
:100FF0004FF0A040FFF7F6F90028F8D00AB070BD16
:1010000001281BD008B54FF0A04000230122022187
:10101000FFF77CF94FF0A040FFF7DAF904214FF019
:10102000A040FFF7DFF90028F8D04FF0A040FFF70D
:10103000D5F900F009FC024B186008BDFFF752BF5C
:101040002C00002008B50120FFF7DAFF0220FFF78F
:10105000D7FF01214FF08040BDE80840FFF74ABCB0
:101060002DE9F843DFF8B0902349D9F80000DFF804
:10107000AC80224E224D234C00F03EFC1E49074618
:10108000D8F80000C9F8007000F036FCC8F800007D
:10109000384600F0CFFA02460B4630461A4901F0B6
:1010A0004BFB13A3D3E900232846184901F044FB66
:1010B000214600230A221648FFF7F8FE21460123A5
:1010C00028221448FFF7F2FE3046214602230F2261
:1010D000FFF7ECFE2846214603230F22FFF7E6FE2A
:1010E0002046BDE8F843FFF7FFBC00BFAFF3008028
:1010F000000000E00C684A3F6740533A04030020B8
:101100003403002004010020A04D0008B44D000865
:10111000C84D0008E04D0008300000202C000020E1
:1011200010B54FF416500B4CFFF728FC0A4801F09D
:1011300049FAFFF7A9FD4FF400720021204600F0A4
:1011400070FD2046FFF7D0FCFFF7EAFEBDE8104037
:1011500000F0D8B804010020E84D000808B5FFF7FA
:10116000DFFFFFF7BFFEFFF77BFFFCE70649074AFB
:10117000074B9A42BEBF51F8040B42F8040BF8E744
:101180000448804704480047E84F0008000000205A
:10119000D800002051120008E50100082A492B4A16
:1011A000002301E041F8043B9142FBD3FFF7D6FF57
:1011B000FEE7FEE7FEE7FEE7FEE7FEE7FEE7FEE707
:1011C000FEE7FEE7FEE7FEE7FEE7FEE7FEE7FEE7F7
:1011D000FEE7FEE7FEE7FEE7FEE7FEE7FEE7FEE7E7
:1011E000FEE7FEE7FEE7FEE7FEE7FEE7FEE7FEE7D7
:1011F000FEE7FEE7FEE7FEE7FEE7FEE7FEE7FEE7C7
:10120000FEE7FEE7FEE7FEE7FEE7FEE7FEE7FEE7B6
:10121000FEE7FEE7FEE7FEE7FEE7FEE7FEE7FEE7A6
:10122000FEE7FEE7FEE7FEE7FEE7FEE7FEE7FEE796
:10123000FEE7FEE7FEE7FEE7FEE7FEE7FEE7FEE786
:10124000FEE7FEE7FEE7FEE7D80000204C030020A3
:1012500010B4274B274A18682749284C40F0010052
:101260001860586802405A601A6822F0847222F4AA
:1012700080321A601A6822F480221A605A6822F4B6
:10128000FE025A60DA6A22F00F02DA621A6B00205C
:10129000114012221963986022605A685A605A6895
:1012A0005A605A6842F480625A605A6822F47C128A
:1012B0005A605A6842F460125A601A6842F08072AA
:1012C0001A6019680A4A8901FBD5536823F00303A1
:1012D0005360536843F002035360536803F00C03F8
:1012E000082BFAD1064B4FF000629A6010BC704791
:1012F000001002400CC07FF8CCFC00FF0020024030
:1013000000ED00E010B5012184B00846FFF770FA47
:1013100001A8FFF7D7FA002301A9134AADF80C3052
:101320004FF080400124ADF80630ADF80430029251
:10133000FFF774FA02231C2268468DF801308DF8FD
:1013400002308DF800208DF80340FFF7AFF82246F9
:1013500021464FF08040FFF7DDFA21464FF08040F4
:10136000FFF7BAFA04B010BD6021600081F00041BF
:1013700002E000BF83F0004330B54FEA41044FEA7A
:10138000430594EA050F08BF90EA020F1FBF54EA15
:10139000000C55EA020C7FEA645C7FEA655C00F0B1
:1013A000E2804FEA5454D4EB5555B8BF6D420CDD82
:1013B0002C4480EA020281EA030382EA000083EA05
:1013C000010180EA020281EA0303362D88BF30BDA5
:1013D00011F0004F4FEA01314FF4801C4CEA1131FB
:1013E00002D0404261EB410113F0004F4FEA03335A
:1013F0004CEA133302D0524263EB430394EA050FE5
:1014000000F0A780A4F10104D5F1200E0DDB02FA53
:101410000EFC22FA05F2801841F1000103FA0EF2E7
:10142000801843FA05F359410EE0A5F120050EF1AD
:10143000200E012A03FA0EFC28BF4CF0020C43FADE
:1014400005F3C01851EBE37101F0004507D54FF0EB
:10145000000EDCF1000C7EEB00006EEB0101B1F53B
:10146000801F1BD3B1F5001F0CD349085FEA300081
:101470004FEA3C0C04F101044FEA445212F5800F8C
:1014800080F09A80BCF1004F08BF5FEA500C50F129
:10149000000041EB045141EA050130BD5FEA4C0C0C
:1014A000404141EB010111F4801FA4F10104E9D195
:1014B00091F0000F04BF01460020B1FA81F308BF8C
:1014C0002033A3F10B03B3F120020CDA0C3208DD58
:1014D00002F1140CC2F10C0201FA0CF021FA02F133
:1014E0000CE002F11402D8BFC2F1200C01FA02F1A3
:1014F00020FA0CFCDCBF41EA0C019040E41AA2BFC8
:1015000001EB0451294330BD6FEA04041F3C1CDA8F
:101510000C340EDC04F11404C4F1200220FA04F0AF
:1015200001FA02F340EA030021FA04F345EA030159
:1015300030BDC4F10C04C4F1200220FA02F001FA1B
:1015400004F340EA0300294630BD21FA04F029469D
:1015500030BD94F0000F83F4801306BF81F4801136
:101560000134013D4EE77FEA645C18BF7FEA655CA9
:1015700029D094EA050F08BF90EA020F05D054EA7B
:10158000000C04BF1946104630BD91EA030F1EBF80
:101590000021002030BD5FEA545C05D14000494184
:1015A00028BF41F0004130BD14F580043CBF01F577
:1015B000801130BD01F0004545F0FE4141F470015D
:1015C0004FF0000030BD7FEA645C1ABF1946104638
:1015D0007FEA655C1CBF0B46024650EA013406BF39
:1015E00052EA033591EA030F41F4002130BD00BFF8
:1015F00090F0000F04BF0021704730B54FF48064B5
:1016000004F132044FF000054FF0000150E700BF35
:1016100090F0000F04BF0021704730B54FF4806494
:1016200004F1320410F0004548BF40424FF0000181
:101630003EE700BF42004FEAE2014FEA31014FEAC4
:1016400002701FBF12F07F4393F07F4F81F0605113
:10165000704792F0000F14BF93F07F4F704730B582
:101660004FF4607401F0004521F0004120E700BF15
:1016700050EA010208BF704730B54FF000050AE09C
:1016800050EA010208BF704730B511F0004502D59D
:10169000404261EB41014FF4806404F132045FEA9F
:1016A000915C3FF4DCAE4FF003025FEADC0C18BF44
:1016B00003325FEADC0C18BF033202EBDC02C2F13A
:1016C000200300FA03FC20FA02F001FA03FE40EACC
:1016D0000E0021FA02F11444C1E600BF80F0004080
:1016E00002E000BF81F0004142001FBF5FEA4103FA
:1016F00092EA030F7FEA226C7FEA236C6AD04FEAFA
:101700001262D2EB1363C1BFD2184140484041403E
:10171000B8BF5B42192B88BF704710F0004F40F4F0
:10172000000020F07F4018BF404211F0004F41F40C
:10173000000121F07F4118BF494292EA030F3FD0D8
:10174000A2F1010241FA03FC10EB0C00C3F12003EB
:1017500001FA03F100F0004302D5494260EB40007A
:10176000B0F5000F13D3B0F1807F06D340084FEAE5
:10177000310102F10102FE2A51D2B1F1004F40EBDA
:10178000C25008BF20F0010040EA03007047490042
:1017900040EB000010F4000FA2F10102EDD1B0FA0D
:1017A00080FCACF1080CB2EB0C0200FA0CF0AABF02
:1017B00000EBC25052421843BCBFD04018437047A0
:1017C00092F0000F81F4000106BF80F400000132A6
:1017D000013BB5E74FEA41037FEA226C18BF7FEA7D
:1017E000236C21D092EA030F04D092F0000F08BFBF
:1017F0000846704790EA010F1CBF0020704712F0A6
:101800007F4F04D1400028BF40F00040704712F1E4
:1018100000723CBF00F50000704700F0004343F049
:10182000FE4040F4000070477FEA226216BF08467F
:101830007FEA23630146420206BF5FEA412390EA42
:10184000010F40F4800070474FF0000304E000BF38
:1018500010F0004348BF40425FEA000C08BF7047E9
:1018600043F0964301464FF000001CE050EA0102AD
:1018700008BF70474FF000030AE000BF50EA0102C2
:1018800008BF704711F0004302D5404261EB4101AF
:101890005FEA010C02BF84460146002043F0B643D4
:1018A00008BFA3F18053A3F50003BCFA8CF2083AF9
:1018B000A3EBC25310DB01FA02FC634400FA02FC02
:1018C000C2F12002BCF1004F20FA02F243EB020009
:1018D00008BF20F00100704702F1200201FA02FC6B
:1018E000C2F1200250EA4C0021FA02F243EB02005E
:1018F00008BF20EADC7070474FF0FF0C1CEAD052A2
:101900001EBF1CEAD15392EA0C0F93EA0C0F6FD062
:101910001A4480EA010C400218BF5FEA41211ED040
:101920004FF0006343EA501043EA5111A0FB01312C
:101930000CF00040B1F5000F3EBF490041EAD37101
:101940005B0040EA010062F17F02FD2A1DD8B3F17D
:10195000004F40EBC25008BF20F00100704790F0EC
:10196000000F0CF0004C08BF49024CEA502040EA3E
:1019700051207F3AC2BFD2F1FF0340EAC250704704
:1019800040F400004FF00003013A5DDC12F1190F42
:10199000DCBF00F000407047C2F10002410021FAB4
:1019A00002F1C2F1200200FA02FC5FEA310040F1CC
:1019B000000053EA4C0308BF20EADC70704792F045
:1019C000000F00F0004C02BF400010F4000F013A7D
:1019D000F9D040EA0C0093F0000F01F0004C02BF78
:1019E000490011F4000F013BF9D041EA0C018FE7E7
:1019F0000CEAD15392EA0C0F18BF93EA0C0F0AD0ED
:101A000030F0004C18BF31F0004CD8D180EA010012
:101A100000F00040704790F0000F17BF90F0004FAB
:101A2000084691F0000F91F0004F14D092EA0C0F8D
:101A300001D142020FD193EA0C0F03D14B0218BF20
:101A4000084608D180EA010000F0004040F0FE4066
:101A500040F40000704740F0FE4040F44000704702
:101A60004FF0FF0C1CEAD0521EBF1CEAD15392EA81
:101A70000C0F93EA0C0F69D0A2EB030280EA010C71
:101A800049024FEA402037D04FF0805343EA11110A
:101A900043EA10130CF000408B4238BF5B0042F168
:101AA0007D024FF4000C8B4224BF5B1A40EA0C000D
:101AB000B3EB510F24BFA3EB510340EA5C00B3EB3F
:101AC000910F24BFA3EB910340EA9C00B3EBD10F2D
:101AD00024BFA3EBD10340EADC001B0118BF5FEA7F
:101AE0001C1CE0D1FD2A3FF650AF8B4240EBC250A8
:101AF00008BF20F0010070470CF0004C4CEA502069
:101B00007F32C2BFD2F1FF0340EAC250704740F4B7
:101B100000004FF00003013A37E792F0000F00F0A9
:101B2000004C02BF400010F4000F013AF9D040EA27
:101B30000C0093F0000F01F0004C02BF490011F4BB
:101B4000000F013BF9D041EA0C0195E70CEAD153B3
:101B500092EA0C0F08D142027FF47DAF93EA0C0F9A
:101B60007FF470AF084676E793EA0C0F04D14B027E
:101B70003FF44CAF08466EE730F0004C18BF31F030
:101B8000004CCAD130F000427FF45CAF31F000432A
:101B90007FF43CAF5FE700BF08B5074B044613B1C5
:101BA0000021AFF30080054B1868836A03B19847A2
:101BB000204602F0F9FF00BF00000000144E0008AC
:101BC00070B50E4B0E4CE41AA41000251E46A5421B
:101BD00004D056F8253098470135F8E702F0E6FFC3
:101BE000084C094BE41AA41000251E46A54204D057
:101BF00056F8253098470135F8E770BDD000002031
:101C0000D0000020D4000020D000002010B5431EDA
:101C10000A44914204D011F8014B03F8014FF8E750
:101C200010BD02440346934202D003F8011BFAE7B9
:101C300070472DE9F04788B0002B149F1299109D32
:101C4000DDF84CA01E4627F02007BBBF03F1004380
:101C50001E4600232D23462F14460B7003D0452F1C
:101C600003D1013501E0032300E0022307AA049217
:101C700006AA03928DE828042246334600F0DCFED3
:101C8000472F804602D1119BDB0728D5462F08EB52
:101C9000050911D198F80030302B0AD10022002319
:101CA0002046314602F0DAFE18B9C5F10105CAF83E
:101CB0000050DAF8003099440022002320463146D3
:101CC00002F0CCFE08B9302202E0CDF81C9006E00C
:101CD000079B994503D9591C07911A70F8E7079B90
:101CE000159AC8EB03034046136008B0BDE8F087BF
:101CF00073B503460029B8BF494203F8022BB4BFAD
:101D00002D222B220929427019DD0DF107021646FA
:101D10000A2591FBF5F405FB14113031092C02F86A
:101D2000011D2146F5DC3031541E02F8011CB4427D
:101D30001A460AD214F8012B03F8012BF7E73024D6
:101D40001A46214402F8024B5970101A02B070BDB5
:101D50002DE9F04F91B00C46DDF8688016461F461D
:101D6000054601F081FD03680993184600F008FD5F
:101D700000230E93D8F800300A90073323F00703AE
:101D800003F1080294F81890D4F800B0C8F80020C5
:101D9000D3E90023C4E91223D4F84CA0D4F8488036
:101DA0002AF000430B934FF0FF32A74B0B994046AC
:101DB00002F086FEA0B94FF0FF32A34B0B994046CC
:101DC00002F060FE60B9002200234046514602F056
:101DD0004FFE10B12D2384F843309C4B9C4A0AE0FF
:101DE000424653464046514602F06AFE002800F043
:101DF0009281984B984AB9F1470F8CBF904698460C
:101E0000032323612BF0040323604FF0000A3DE01D
:101E1000B9F1670F00F08A81B9F1470F00F08681B0
:101E2000236000210DF13302019363680590029253
:101E30000093424653460691CDF81090CDF80CE041
:101E40002846FFF7F6FE09F0DF03472B804600F037
:101E50008481B9F1650F0D9900F28D8101394A46EF
:101E600004F150000D91FFF743FF0E9A8318012AE9
:101E70008246236100F37C812268D10700F17881DA
:101E80009DF8333013B12D2384F843300097334647
:101E90000FAA2146284600F09FF9013002D14FF0E9
:101EA000FF3096E123685A0501D4236965E0B9F152
:101EB000650F40F2D58000220023D4E9120102F020
:101EC000CDFD78B30123654A31462846B847013035
:101ED000E5D00E9B0D9A9A420BDB2368D80708D4F5
:101EE00023689B0740F111814FF0000804F11909A4
:101EF00006E10A9B099A31462846B8470130CED000
:101F00004FF0000804F11A090E9B013B9845E7DAEF
:101F100001234A4631462846B8470130BFD008F170
:101F20000108F1E70D9B002B29DC01234B4A3146C8
:101F30002846B8470130B2D00D9B23B90E9B13B988
:101F40002368D907CCD50A9B099A31462846B84759
:101F50000130A4D04FF0000904F11A0A0D9B5B4236
:101F6000994509DA0123524631462846B8470130DF
:101F700095D009F10109F1E70E9B4246A7E00E9AC0
:101F8000A36D9A42A8BF1A46002A914606DC4FF07C
:101F9000000A29EAE97904F11A0B11E013463146E7
:101FA00042462846B8470130F1D178E701235A4626
:101FB00031462846B84701303FF471AF0AF1010AB3
:101FC000A36DC9EB03029245F0DB08EB03090D9A00
:101FD0000E9B9A420FDB2368DA070CD40E9B0D9AF6
:101FE0009844C9EB08089B1A9845A8BF9846B8F1D1
:101FF000000F08DC0FE00A9B099A31462846B847D3
:102000000130EBD14BE743464A4631462846B847B4
:1020100001303FF444AF4FF0000928EAE87804F1BA
:102020001A0A09E00123524631462846B8470130D2
:102030003FF435AF09F101090D9A0E9B9B1AC8EBCD
:1020400003039945EEDB4BE7FFFFEF7F184E0008D7
:102050001C4E0008204E0008244E0008284E0008A0
:102060000E9A012A01DCDB0738D5012342463146AE
:102070002846B84701303FF412AF0A9B099A31460F
:102080002846B84701303FF40AAF00220023D4E9C4
:10209000120102F0E3FC20B14FF0000804F11A092C
:1020A0000EE00E9B08F10102013B19E001234A46B4
:1020B00031462846B84701303FF4F1AE08F1010837
:1020C0000E9B013B9845F1DB534604F1500231462B
:1020D0002846B84701307FF403AFE0E601234246CB
:1020E00031462846B8470130EED1D8E601234A46AA
:1020F00031462846B84701303FF4D1AE08F1010817
:10210000E3680F9A9B1A9845F0DBE0680F9B9842B2
:10211000B8BF18465DE06268531C0EA84BF480639C
:102120000DF1340E7FF474AE062201E012B90122E3
:10213000626075E6002106910DF133018DE80C0017
:10214000236005904246CDF81090CDF80CE0029146
:1021500053462846FFF76DFD80460D9BD81C02DBD9
:10216000626893421DDDA9F102095FFA89F970E600
:102170000133236184E6B9F1660F14D10029636845
:1021800007DD216113B92268D2071DD501330B4445
:1021900019E013B92268D00701D5023313E00123F7
:1021A00011E04FF067090D9B0E9A934205DB226800
:1021B0002361D10708D5013305E0002BD4BFC3F15B
:1021C00002030123134423610D9BA3654FF0000A12
:1021D00056E611B0BDE8F08F2DE9F04791461F4655
:1021E0000A698B68DDF820809342B8BF1346C9F8AE
:1021F000003091F8432006460C4612B10133C9F86D
:1022000000302368990642BFD9F800300233C9F87C
:102210000030256815F0060510D104F1190A07E011
:102220000123524639463046C04701301AD00135A5
:10223000E368D9F800209B1A9D42F1DB94F8433003
:102240002268003318BF012392060FD5E1185A1CEB
:10225000302081F84300224494F8451082F843105E
:10226000023303E04FF0FF30BDE8F08704F1430292
:1022700039463046C0470130F4D02268D9F80050C2
:10228000E36802F00602042A08BF5D1B2269A36806
:102290000CBF25EAE57500259342C4BF9B1AED18D3
:1022A0004FF000091A344D4509D001232246394622
:1022B0003046C0470130D5D009F10109F3E70020CD
:1022C000BDE8F0872DE9F04317460A7E85B06E2AF7
:1022D000984606460C460C9B01F1430E00F0AE807A
:1022E00011D8632A22D009D8002A00F0BB80582ACE
:1022F00040F0CA8081F84520834955E0642A1ED009
:10230000692A1CD0C0E0732A00F0B08009D86F2A77
:102310002ED0702A40F0B8800A6842F020020A608D
:102320003EE0752A24D0782A3AD0ADE01A6801F14F
:102330004205111D1960136884F84230A8E0216835
:102340001A6811F0800F02D0111D196008E011F019
:10235000400F02F10401196002D0B2F9003000E030
:102360001368002B3CDA2D225B4284F8432037E0CF
:1023700021681A6811F0800F02D0111D196007E062
:1023800011F0400F02F10401196001D0138800E040
:102390001368227E5C496F2A14BF0A2208221BE0C0
:1023A00078225A4984F845202268186812F0800F74
:1023B00000F104051D6003D1550601D5038800E036
:1023C0000368D00744BF42F0200222601BB9226894
:1023D00022F0200222601022002084F8430001E055
:1023E00049490A226568A560002D08DB206820F0B5
:1023F000040020602BB9002D7DD175460CE0002B28
:1024000079D07546B3FBF2F002FB1033CB5C05F8D4
:10241000013D03460028F5D1082A0BD12368DA07CD
:1024200008D5236962689A42DEBF302305F8013C73
:1024300005F1FF35C5EB0E0323612EE008681A682D
:10244000496910F0800F03D0101D1860136808E070
:1024500010F0400F02F104001860136801D01980D9
:1024600000E0196000232361754616E01A68111D0B
:102470001960156862680021284601F061FA08B108
:10248000401B6060636804E004F1420584F8422068
:1024900001232361002384F84330CDF800803B46BC
:1024A00003AA21463046FFF797FE013002D14FF0D4
:1024B000FF3026E023692A4639463046C0470130BE
:1024C000F5D023689B0710D5002504F1190907E012
:1024D00001234A4639463046C0470130E7D001352E
:1024E000E368039A9B1A9D42F2DBE068039B9842E3
:1024F000B8BF184605E00B7884F8423004F1420575
:102500008AE705B0BDE8F0832A4E00083B4E00087C
:1025100070B50E46054618B183690BB901F01AF97A
:10252000AB69AC6813B9284601F014F9224B9C4200
:1025300001D16C6808E0214B9C4201D1AC6803E0FA
:102540001F4B9C4208BFEC68A3891B0701D5236978
:102550003BB92146284600F06FF910B14FF0FF302B
:1025600070BD013EA36816F8011F013BA36091B145
:10257000002B04DAA269934206DB0A2904D02368FF
:102580005A1C22601970EDE72246284600F000F937
:102590000130E7D1E2E7002B08DA22460A2128467B
:1025A00000F0F6F80130D9D00A2070BD23680A2067
:1025B0005A1C2260187070BD5C4E00087C4E0008EA
:1025C0009C4E0008024B01461868FFF7A1BF00BFF0
:1025D0009400002000294FF480630CBF02220022E7
:1025E00000F000B82DE9F7431D464F4B1E68044626
:1025F0000F46904626B1B36913B9304601F0AAF8E8
:102600004A4B9C4201D1746808E0494B9C4201D17D
:10261000B46803E0474B9C4208BFF468B8F1020F6E
:1026200004D0B8F1010F79D8002D77DB2146304670
:1026300001F026F8616B41B104F14403994202D0E4
:10264000304601F0B1FC002363630023A3616360A3
:10265000A3891B0603D52169304601F0A5FCA38997
:1026600023F44A6323F00303B8F1020FA3811ED0C1
:1026700001AB6A462146304601F0FAF8A3891843B7
:10268000A0810DB9009D00E02FBB284601F050F954
:102690000746D0B9DDF80090A94502D14FF0FF30D0
:1026A00006E0484601F044F9074678B9F6E700200D
:1026B000A38943F00203A3810023A36004F147032D
:1026C00023602361012363612AE0A946A38943F0C3
:1026D0008003A3814D46B36913B9304601F03AF83F
:1026E000B8F1010F08BFA389276004BF43F00103BD
:1026F000A381A389276103F0080080B2656158B106
:1027000013F001034FF000001DBF6D42A060A561F2
:10271000A56008BF184603E0A06001E04FF0FF305D
:1027200003B0BDE8F08300BF940000205C4E0008B9
:102730007C4E00089C4E00080EB400B59CB04FF4CF
:1027400002711DABADF81410029006906FF00041BD
:102750000A48049107914FF6FF7153F8042BADF826
:1027600016100068019302A901F024FD029B0022CB
:102770001A701CB05DF804EB03B0704794000020A1
:10278000034613F8012B002AFBD1181A01387047B1
:10279000F8B50F461446064618B183690BB900F028
:1027A000D9FF224B9C4201D1746808E0204B9C4227
:1027B00001D1B46803E01F4B9C4208BFF468A369D1
:1027C000A360A3891A0709D523693BB1236820694F
:1027D000181A63699842FDB20FDB08E021463046C3
:1027E00000F02AF80028F1D04FF0FF30F8BD214664
:1027F000304600F045FF0028F6D1A368013BA360F6
:1028000023685A1C22601F706269431C934204D0E3
:10281000A389DB0707D50A2D05D12146304600F0F4
:102820002FFF0028E0D12846F8BD00BF5C4E00080D
:102830007C4E00089C4E0008324B70B51D68064661
:102840000C4625B1AB6913B9284600F083FF2E4B27
:102850009C4201D16C6808E02C4B9C4201D1AC68D1
:1028600003E02B4B9C4208BFEC68B4F90C309AB2E1
:1028700015071DD4D00602D4092232603AE0510770
:1028800012D5616B41B104F14403994202D0304644
:1028900001F08AFB00236363A38923F02403A3814F
:1028A0000023636023692360A38943F00803A381A5
:1028B00023694BB9A38903F42073B3F5007F03D0D8
:1028C0002146304600F0F8FFA28912F0010305D03E
:1028D0000023A36063695B42A36103E0920758BFD2
:1028E0006369A36023695BB9B4F90C3003F080001D
:1028F00080B230B143F04003A3814FF0FF3070BD90
:10290000002070BD940000205C4E00087C4E000842
:102910009C4E00082DE9F74F03690C699C428046E4
:1029200000F38380013C01F114074FEA840E00F1AB
:10293000140657F8245006EB0E030193013556F8A0
:102940002430B3FBF5F507EB0E09002D39D04FF01D
:10295000000A3846B446D34650F8042B93B205FB20
:1029600003A34FEA134A9BB2C3EB0B03120CBCF850
:1029700000B005FB02A213FA8BF34FEA124A1FFACA
:1029800082FBDCF80020CBEB124202EB23429BB22D
:1029900043EA024381454FEA224B4CF8043BDBD229
:1029A00056F80E306BB9019B043B9E421A4602D387
:1029B000C8F8104005E01268043B002AF8D1013C39
:1029C000F3E7404601F019FA00282CDB01353046C8
:1029D0004FF0000E57F8041BD0F800C08AB2C2EBCB
:1029E0000E03090C13FA8CF3C1EB1C4202EB2342D9
:1029F0009BB243EA0243B9454FEA224E40F8043BFA
:102A0000E8D256F8242006EB840362B9043B9E42C8
:102A10001A4602D3C8F8104005E01268043B002AA9
:102A2000F8D1013CF3E7284600E0002003B0BDE800
:102A3000F08F0000000000002DE9F04F456A95B0CE
:102A40008246219CCDE9022345B9102000F070FF99
:102A5000CAF82400456085600560C560DAF8243056
:102A6000196859B15A684A60012393408B605046F7
:102A700000F0EBFFDAF8243000221A60039BA04A32
:102A8000002BBFBF01232360039B23F00043B8BF8B
:102A90000393DDF80C80A4BF0023236028F00043DB
:102AA0001B0D1B0593421DD1209A42F20F73136038
:102AB000029B43B9934A944BC8F31300002814BFF8
:102AC0001846104600E09048229B002B00F04A85F3
:102AD000C37813B100F1080300E0C31C229A13600D
:102AE00000F040BDDDE902450022002320462946D2
:102AF00001F0B4FF074658B1209A01231360229BCE
:102B0000002B00F0228581481860013800F02ABDB2
:102B100012AB019313AB009322462B46504601F0B3
:102B2000E7F9C8F30A56049056B1C5F3130343F00E
:102B30007F51204641F44011A6F2FF3611971DE067
:102B4000139B129E1E4406F23243202B0ADD029A8A
:102B500006F21240C3F1400322FA00F008FA03F330
:102B6000184304E0C3F12000029B03FA00F0FEF7D3
:102B70003FFD0123A1F1F871013E11930022644B46
:102B8000FEF7F8FB58A3D3E9002301F0FFFC58A39C
:102B9000D3E90023FEF7F0FB044630460D46FEF76E
:102BA00037FD55A3D3E9002301F0F0FC02460B46A4
:102BB00020462946FEF7E0FB04460D4601F096FF4D
:102BC0000022834600232046294601F051FF58B1D8
:102BD0005846FEF71DFD02460B462046294601F0E9
:102BE0003DFF08B90BF1FF3BBBF1160F0DD849496A
:102BF00001EBCB01DDE90223D1E9000101F056FF31
:102C000030B10BF1FF3B002300E00123109300E003
:102C10001090129B9E1B731E079343BFC3F10008C5
:102C2000002307934FF00008BBF1000F06DB079B62
:102C3000CDF82CB05B440793002705E00023CBEBD5
:102C40000808CBF100070B931E9B092B27D8052BF7
:102C5000C4BF043B1E931E9BA3F10203CCBF0025FF
:102C60000125032B20D8DFE803F0060E0204012320
:102C700002E0012308E000230A931F9B002B1DDDC7
:102C80009946059321E000230A931F9B0BEB030950
:102C900009F10103012B0593B8BF012315E00125BC
:102CA00000231E930A9501E001230A934FF0FF3998
:102CB0000022CDF8149012231F9206E04FF0010974
:102CC000CDF814904B46CDF87C90DAF824400022E1
:102CD0006260042101F114029A421DD86268013237
:102CE00062604900F6E700BF61436F63A787D23F88
:102CF000B3C8608B288AC63FFB799F501344D33FEB
:102D00000000F07F4C4E0008554E0008294E000888
:102D10000000F83FC84E00086168504600F060FEB1
:102D2000DAF8243020601B680693059B0E2B00F216
:102D30005D81002D00F05A81DDE90234BBF1000F06
:102D4000CDE90E3431DDA04A0BF00F0302EBC303D3
:102D5000D3E900344FEA2B15E806CDE908340CD549
:102D60009A4BDDE90E01D3E9082301F039FD05F0A6
:102D70000F05CDE90201032400E00224934E6DB15A
:102D8000E90708D5DDE90801D6E9002301F0FEFBDB
:102D9000CDE9080101346D100836F0E7DDE90823BC
:102DA000DDE9020101F01CFD20E0CBF1000505B3D7
:102DB000854B864E05F00F0203EBC203D3E90023D7
:102DC000DDE90E0101F0E2FBCDE902012D11002346
:102DD000022455B1EA0705D5D6E9002301F0D6FB58
:102DE000013401236D100836F3E71BB1CDE9020170
:102DF00000E00224109BE3B1DDE902560022744B8F
:102E00002846314601F034FE98B1059B8BB1B9F1EB
:102E1000000F40F3E7800BF1FF33089331460022A7
:102E20006C4B284601F0B2FB0134CDE902014E465D
:102E300002E0059ECDF820B02046FEF7E9FBDDE973
:102E4000022301F0A3FB644B0022FEF795FAA1F1E7
:102E5000507304460C931D46D6B900225F4BDDE942
:102E60000201FEF787FA22460C9BCDE9020101F030
:102E70001DFE002840F040820C99224601F10043DB
:102E8000DDE9020101F0F4FD002840F02C82A9E008
:102E90000A9A4D4B711E002A49D003EBC103D3E9B6
:102EA000002300204E4901F09BFC22462B46FEF7F2
:102EB00061FACDE90C01069CDDE9020101F016FE84
:102EC0000546FEF7A5FB02460B46DDE90201FEF7CB
:102ED00051FA303504F8015BDDE90C23CDE902013C
:102EE00001F0C6FD002840F02083DDE90223002028
:102EF0003749FEF73FFADDE90C2301F0B9FD002860
:102F000040F0D280069BE31AB3426BDA0022314BC9
:102F1000DDE90C0101F03AFB0022CDE90C012D4B5B
:102F2000DDE9020101F032FBCDE90201C4E703EB68
:102F3000C10122462B46D1E9000101F027FB069B87
:102F4000CDE90C019C191D46DDE9020101F0CEFD21
:102F50000646FEF75DFB303602460B46DDE9020110
:102F6000FEF708FA05F8016BAC42CDE902014FF01B
:102F7000000223D11A4BDDE90C01FEF7FDF90246F0
:102F80000B46DDE9020101F091FD002840F08C8044
:102F9000DDE90C2300201249FEF7ECF902460B464E
:102FA000DDE9020101F064FDE0B114F8013C302BD1
:102FB00004F1FF3240F0B9821446F6E7054B01F008
:102FC000E5FACDE90201BFE7C84E0008A04F0008AE
:102FD0000000F03F0000244000001C4000001440AE
:102FE0000000E03FDDE90E34CDE90234139B002BF5
:102FF0007DDBBBF10E0F7ADCAB4B03EBCB03D3E9EC
:1030000000671F9B002B14DA059B002B11DC40F09E
:103010006C810022A54B3046394601F0B7FADDE954
:10302000022301F039FD059D2E46002840F05F8106
:1030300065E1DDE90289069C32463B464046494649
:1030400001F0CEFB01F052FD0546FEF7E1FA3246F3
:103050003B4601F09BFA0B46024649464046FEF7C6
:1030600089F905F1300E069B04F801EBC3EB040E61
:10307000059B73452ED102460B46FEF77DF980462F
:10308000894602460B463046394601F0F1FC78B9D4
:1030900042464B463046394601F0E0FC002800F03D
:1030A0004682EB0704D442E2DDF820B000E01C4683
:1030B00014F8012C392A04F1FF3307D1069A9A42F9
:1030C000F5D1069930220BF1010B0A701A78013202
:1030D0001A702CE20022764B01F058FA00220023ED
:1030E0008046894601F0BAFC0028A5D01FE20A9A62
:1030F000002A2BD01E9A012A0ADC119A12B103F27F
:10310000334302E0129BC3F136033D46444613E0CD
:10311000059B5D1EAF42BFBF0B9BEA1B9B180B9329
:10312000059BB6BF2F467D1B0025002BABBF059B23
:10313000C3EB080444460023079A01211A44504671
:103140009844079200F020FD064602E00A9E3D46A4
:1031500044465CB1079B002B08DDA342079AA8BF39
:103160002346C3EB0808E41AD31A0793002F1DDD8A
:103170000A9BABB18DB131462A46504600F09EFD08
:10318000049A01460646504600F007FD049908904F
:10319000504600F05AFC089B04937A1B06D000E0CE
:1031A0003A460499504600F089FD049001215046AA
:1031B00000F0EAFC0B9B05465BB31A4601465046FD
:1031C00000F07CFD1E9B012B054618DC029B83B999
:1031D000039BC3F3130373B9039B23F000473F0D15
:1031E0003F054FB1079B013308F101080793012701
:1031F00002E0002700E0029F0B9B73B100E0002774
:103200002B6905EB8303186900F071FCC0F1200005
:1032100004E01E9B012BD9DD0B9F0120079B184466
:1032200010F01F0008D0C0F12003042B02DDC0F114
:103230001C0002E006D018461C30079B0344804463
:1032400004440793B8F1000F05DD42460499504647
:1032500000F082FD0490079B002B05DD29461A46ED
:10326000504600F079FD0546109B1BB32946049893
:1032700000F0C3FD00281DDA00230A2204995046FD
:1032800000F0FAFB0A9B04900BF1FF3B002B00F0CF
:103290006081314600230A22504600F0EDFBB9F16F
:1032A000000F06463EDC3AE0C84E0008000014401D
:1032B00000002440059B002B2BDC1E9B022B28DDED
:1032C000DDF81490B9F1000F11D129464B460522C3
:1032D000504600F0D1FB01460546049800F08DFDF4
:1032E00000280CDC03E0354600E000252E461F9B3D
:1032F000069C6FEA030B09E0DDF820B03546069B1B
:10330000069A5C1C312313700BF1010B0596002605
:10331000F9E00A9BDDF8149023B9069CB2E01E9BED
:10332000022BCFDC002C05DD31462246504600F052
:1033300013FD06469FB17168504600F051FB32699B
:1033400002320446920006F10C010C30FEF75EFCDE
:1033500001222146504600F0FFFC059000E0059652
:10336000029B069F03F00103079329460498FFF789
:10337000D1FA3146044600F13008049800F03DFDD2
:10338000059A02902946504600F053FDC368024654
:103390003BB901460A90049800F02FFD0A9A0346B3
:1033A00000E00123114650460A9300F04EFB0A9BB1
:1033B00053B91E9A42B9079A32B9B8F1390F2AD0D7
:1033C000029B002B1CDC1DE0029A002A04DB1BD1AF
:1033D0001E9ACAB9079ABAB9002B13DD01220499C3
:1033E000504600F0B9FC2946049000F006FD002884
:1033F00003DC07D118F0010F04D0B8F1390F0AD05F
:1034000004F131087C1C0CE0002B07F101040BDDFA
:10341000B8F1390F03D139233B70013756E008F179
:10342000010887F800806EE0069B04F8018CE31A1F
:103430004B4527463BD000230A220499504600F012
:103440001BFB059B04909E424FF00A024FF00003C5
:103450003146504604D100F00FFB0646059084E744
:1034600000F00AFB002306460A220599504600F0A8
:1034700003FB059079E700230A220499504600F0E7
:10348000FBFA049029460498FFF744FA00F130084B
:1034900004F8018B069BE31A4B45ECDB069B059673
:1034A000B9F1010FACBF4B4401331F460026012286
:1034B0000499504600F050FC2946049000F09DFC11
:1034C000002803DC16D118F0010F13D03C4614F885
:1034D000013C392B04F1FF3209D1069B934204D100
:1034E0000BF1010B3123069A02E01446EFE701339A
:1034F000137008E03C4614F8013C302B04F1FF3215
:1035000001D11446F7E72946504600F09EFA059B84
:103510006BB12EB19E4203D03146504600F095FA71
:103520000599504600F091FA01E0DDF820B00499C9
:10353000504600F08AFA0023209A23700BF1010311
:103540001360229B1BB11C6001E008480AE006984A
:1035500008E0B9F1000F3FF7E0AE1E9B022B7FF7AA
:10356000DCAEAFE615B0BDE8F08F00BF284E000816
:103570008A892DE9F041054610070C4659D44B685D
:10358000002B02DC0B6C002B17DDE66AAEB102F4F7
:103590008052002392B22F682B600AB1606D15E053
:1035A000216A01232846B047411C0FD12B686BB11B
:1035B0001D2B01D0162B03D12F600020BDE8F08118
:1035C000A38943F04003A381BDE8F081A3895A0792
:1035D00005D56368C01A636B0BB1236CC01A002356
:1035E0000246E66A216A2846B047431CA38906D1F1
:1035F00029681D293AD8214ACA40D60736D5002263
:103600006260D9042269226004D5421C01D12B6872
:1036100003B96065616B2F600029CED004F14403CB
:10362000994202D0284600F0BFFC00206063BDE84C
:10363000F0810F69002FC0D093070E6808BF4B6957
:103640000F6018BF0023C7EB06088B6002E0074439
:10365000C0EB0808B8F1000FAFDD43463A46216AD7
:10366000A66A2846B0470028F1DCA38943F040034E
:10367000A3814FF0FF30BDE8F08100BF0100402082
:1036800038B50B6905460C46DBB118B183690BB937
:1036900000F060F80C4B9C4201D16C6808E00B4BC9
:1036A0009C4201D1AC6803E0094B9C4208BFEC6826
:1036B000B4F90C302BB121462846BDE83840FFF75D
:1036C00057BF002038BD00BF5C4E00087C4E00088C
:1036D0009C4E0008014900F0A9B800BF81360008DF
:1036E000002310B504460360436083608181436614
:1036F000C281036143618361194608225C30FEF791
:1037000090FA054B6362054BA362054BE362054BE0
:103710002462236310BD00BFBD430008DF430008DF
:10372000174400083B44000870B568234D1E5D43F4
:103730000E4605F1740100F085FC044640B10021FD
:1037400080E842000C30A06005F16802FEF769FADB
:10375000204670BD836910B5044633BB8364C364DF
:103760000365124B124A1B688262984204BF012310
:10377000836100F01FF86060204600F01BF8A06035
:10378000204600F017F80022E06004216068FFF78F
:10379000A7FF01220921A068FFF7A2FF0222122140
:1037A000E068FFF79DFF0123A36110BD144E0008E0
:1037B000D5360008F8B51C4B1E68B369074613B927
:1037C0003046FFF7C7FF4836B4687368013B04D43E
:1037D000B4F90C507DB16834F8E733680BB1366842
:1037E000F2E704213846FFF79FFF30600028F6D14A
:1037F0000C233B60F8BD4FF6FF73E3810123A381E7
:1038000065662560A560656025616561A561082222
:10381000294604F15C00FEF704FA6563A563A5641C
:10382000E5642046F8BD00BF144E00082DE9F843BA
:103830008046894600F14804002694B1A56867686F
:10384000013F0CD4AB89012B07D9B5F90E300133F8
:1038500003D029464046C84706436835F0E7246848
:10386000EBE73046BDE8F883004870479800002039
:1038700070B50E46B1F90E10002990B014461D46E1
:1038800006DA00232B60B3891A060ED540230EE01A
:1038900001AA00F0E7FD0028F3DB029A02F470426F
:1038A000A2F500535A425A412A604FF48063002027
:1038B000236010B070BD00008B8973B59E0705466C
:1038C0000C4610D401AB6A46FFF7D2FF00990646BA
:1038D000284600F0B7FB68B9B4F90C309A0522D439
:1038E00043F00203A38104F1470323602361012312
:1038F000636118E00D4BAB62A389206043F0800345
:10390000A381009B6361019B20614BB1B4F90E1050
:10391000284600F0B9FD18B1A38943F00103A38143
:10392000A0893043A08102B070BD00BFD536000829
:10393000024B0146186800F085BB00BF94000020D0
:1039400001F0FF01102A2BDB10F0070F08D010F850
:10395000013B013A8B422DD010F0070F42B3F6D154
:10396000F0B441EA012141EA014122F007047FF06D
:1039700000070023F0E80256083C85EA010586EAC4
:10398000010685FA47F5A3FA87F586FA47F6A5FA00
:1039900087F68EB9EED1F0BC01F0FF0102F007020C
:1039A00032B110F8013B013A83EA010313B1F8D1B7
:1039B0000020704701387047002D06BF3546033898
:1039C000073815F0010F07D1013015F4807F02BFD1
:1039D000013015F4C03F0130F0BC0138704700BF22
:1039E00070B5456A04460E463DB91020FFF7A0FFAA
:1039F0006062456085600560C560656AEB6843B1DB
:103A0000636ADB6853F8260078B1026843F8262021
:103A100017E021220421204600F0B8FA636AE8602A
:103A2000DB68002BECD1002070BD012101FA06F506
:103A30006A1D9200204600F0A9FA0028F3D04660E3
:103A4000856000230361C36070BD70B5446A06469B
:103A50000D463CB91020FFF76BFF70624460846034
:103A60000460C4603DB1736A6A68DB6853F8221071
:103A7000296043F8225070BD2DE9F0410D691F46C1
:103A800006460C4601F1140E0023DEF8000081B258
:103A900002FB01710F0C000C02FB007089B20133B4
:103AA00001EB00419D424FEA10474EF8041BECDC4D
:103AB000D7B1A3689D4212DB616830460131FFF740
:103AC0008FFF2269023204F10C01804692000C3013
:103AD000FEF79CF821463046FFF7B7FF444604EB5B
:103AE000850301355F6125612046BDE8F081030C47
:103AF0001B0413B90004102300E0002310F07F4FD3
:103B000004BF0002083310F0704F04BF00010433FB
:103B100010F0404F04BF80000233002803DB420056
:103B200003D5581C7047184670472020704703681B
:103B300013F007020BD0D90722D49A074BBF5B08BA
:103B40009B08036003604CBF01200220704799B2BC
:103B500009B91B0C102213F0FF0F04BF1B0A083217
:103B6000190704BF1B090432990704BF9B080232DE
:103B7000D90702D45B0805D00132036010467047B4
:103B8000002070472020704710B50C460121FFF738
:103B900027FF01224461026110BD2DE9F74F144651
:103BA0000A6923699A42B8BF0B468846BCBFA04643
:103BB0001C46D8F81070D4F81090D8F80830D8F80F
:103BC000041007EB09069E42C8BF0131FFF708FF4A
:103BD00000F1140505EB860C2B460022634502D24A
:103BE00043F8042BFAE704F1140208F1140102EB84
:103BF000890301EB87070093009B0192934257D9F9
:103C0000B2F800B0BBF1000F23D08946AE464FF0AA
:103C1000000859F8044BBEF800A0A3B20BFB03A3A5
:103C20004FEA144ADEF8004043444FEA14480BFBC5
:103C30000A8404EB1344F2469BB243EA04434F4523
:103C40004FEA14484AF8043B01D9D646E1E7CEF8DA
:103C50000480019BB3F802A00432BAF1000F21D016
:103C60002B682C4689464FF00008B9F800E0B4F8FC
:103C700002B00AFB0EBEF044A3469BB243EA0843DF
:103C80004BF8043B59F8043BB4F804E01B0C0AFB66
:103C900003E303EB18434F454FEA134801D95C4651
:103CA000E3E763600435A7E75CF8043D13B9013E20
:103CB000002EF9DC066103B0BDE8F08F2DE9F84372
:103CC000154612F0030206460F4607D0013A214C72
:103CD000002354F82220FFF7CFFE0746AD1036D060
:103CE000746A3CB91020FFF723FE70624460846060
:103CF0000460C460D6F82480D8F808404CB940F27B
:103D000071213046FFF740FF0023C8F80800044641
:103D100003604FF00008EB070AD5394622463046CB
:103D2000FFF73BFF394681463046FFF78EFE4F4690
:103D30006D100CD0206808B10446ECE722462146FD
:103D40003046FFF72AFF2060C0F80080F4E73846CD
:103D5000BDE8F883904F00082DE9F0470C464FEA84
:103D6000621A26694968A368564407469146751C3D
:103D7000AB4202DA01315B00FAE73846FFF730FE6A
:103D80000023804600F114011A46534503DA41F836
:103D900023200133F9E72AEAEA73206901EB830360
:103DA00019F01F0904F1140101EB800E14D0C9F1C0
:103DB000200C0022086800FA09F002439A4643F8F2
:103DC000042B51F8042B8E4522FA0CF2F2D8CAF8D3
:103DD000042042B1B51C06E0043B51F8042B43F823
:103DE000042F8E45F9D8013D3846C8F810502146B9
:103DF000FFF72BFE4046BDE8F08703690A699B1A6E
:103E000010B511D192001430143183180A4453F8BC
:103E1000044D52F8041D8C4202D007D3012010BD7E
:103E20009842F4D3002010BD184610BD4FF0FF306B
:103E300010BD2DE9F8430C460746114620461546AD
:103E4000FFF7DBFF061E08D131463846FFF7C8FDF5
:103E5000012303614661BDE8F883BCBF23462C46BD
:103E600038466168BABF1D4601260026FFF7B8FD37
:103E70002B69C660266905F11409143404EB860722
:103E800009EB830800F114054FF0000C54F8043BD3
:103E900059F8042B1CFA83F11FFA82FE120CCEEBA8
:103EA0000101C2EB134303EB214389B24FEA234CD8
:103EB000C84541EA0343A64645F8043BE6D8BE455B
:103EC0000ED25EF8041B1CFA81F2131403EB1143AB
:103ED00092B242EA03424FEA234C45F8042BEEE744
:103EE00055F8043D0BB9013EFAE70661BDE8F883D9
:103EF0002DE9F34101211C469046089E099DFFF7DC
:103F00006FFDC4F31302C4F30A5407460CB142F424
:103F100080120192B8F1000F19D002A840F8088D64
:103F2000FFF705FE009B48B1019AC0F1200102FA9B
:103F300001F10B43C2407B61019200E07B61019B78
:103F4000BB61002B14BF02210121396107E001A8E8
:103F5000FFF7EDFD019B7B6101213961203034B118
:103F6000A4F2334404443460C0F1350009E007EBA7
:103F70008103A0F2324030601869FFF7B8FDC0EB52
:103F800041102860384602B0BDE8F08138B502FB28
:103F900001F4214600F056F8054618B122460021EA
:103FA000FDF73FFE284638BD38B50546002946D006
:103FB00051F8043C0C1F002BB8BFE41800F0A1FA24
:103FC0001F4A1368114613B96360146032E0A342BC
:103FD0000ED92268A018834204BF18685B6863602A
:103FE00004BF121822600C6024E0A24203D81346DA
:103FF0005A68002AF9D118681918A1420BD1216812
:10400000014458188242196014D1106852685A60ED
:10401000014419600EE002D90C232B600AE02168EC
:104020006018824204BF10685268626004BF0918B9
:1040300021605C602846BDE8384000F063BA38BDB6
:10404000F800002070B5CD1C25F0030508350C2DB7
:1040500038BF0C25002D064601DBA94202D90C23EE
:10406000336046E000F04DFA234B1C681A462146A7
:10407000A1B10B685B1B0ED40B2B03D90B60CC18C2
:10408000CD501EE08C420DBF63684B6863601360C7
:1040900018BF0C4615E00C464968E9E7174C236841
:1040A0001BB9304600F07AF920602946304600F00E
:1040B00075F9431C18D0C41C24F00304A0420DD190
:1040C0002560304600F01EFA04F10B00231D20F09D
:1040D0000700C31A0ED05A42E25070BD211A304672
:1040E00000F05CF90130EBD10C233360304600F076
:1040F00009FA002070BD00BFF8000020F400002085
:104100002DE9F0478E689E4282460C4691469846BD
:104110003ED88A8912F4906F3AD0256809696F1ADF
:104120006569022305EB450595FBF3F57B1C4344CC
:104130009D4238BF1D4653050FD52946FFF782FF24
:10414000064698B13A462169FDF760FDA38923F43C
:10415000906343F08003A38113E02A4600F0D3F973
:10416000064670B921695046FFF71EFF0C23CAF8B6
:104170000030A38943F04003A3814FF0FF30BDE836
:10418000F087266165613E44ED1B2660A5604646CA
:10419000464528BF464632464946206800F096F913
:1041A000A3689B1BA36023681E4426600020BDE813
:1041B000F08700002DE9F04F9DB0804603938B8976
:1041C0001C060D4616460DD50B695BB94021FFF75D
:1041D00039FF2860286118B90C23C8F80030CDE0F9
:1041E00040236B610023099320238DF82930DFF8E9
:1041F0009CB130238DF82A3037463C4614F8013BF9
:104200001BB9B7EB060910D003E0252BF9D02746E0
:10421000F3E74B46324629464046FFF771FF01302F
:1042200000F0A780099B4B4409933B78002B00F0DA
:10423000A08000234FF0FF3204930793059206936A
:104240008DF853301A930126052221784E48FFF746
:1042500077FB671C049B38B14B4A801A06FA00F0C2
:10426000184304903C46EFE7D90644BF20228DF85E
:1042700053201A0744BF2B228DF8532022782A2A74
:1042800003D0079A00210A200BE0039A111D12683F
:104290000391002A10DA524243F002000792049080
:1042A0000BE0274601343B78303B092B03D800FB59
:1042B00002320121F5E701B107923B782E2B1ED186
:1042C0007B782A2B0AD1039B1A1D1B680392002BB3
:1042D000B8BF4FF0FF330237059310E0002305937A
:1042E000781C19460A24074601303A78303A092AE0
:1042F00003D804FB01210123F5E703B10591032253
:1043000039782248FFF71CFB40B14023CBEB00007B
:1043100003FA00F0049B18430490013739781C48D5
:104320008DF8281006227E1CFFF70AFB88B1194B76
:1043300033B9039B073323F007030833039314E0D7
:1043400003AB00932A46144B04A94046FDF700FD39
:1043500007E003AB00932A460F4B04A94046FDF744
:10436000B1FFB0F1FF3F824603D0099B534409934C
:1043700042E7AB895B0601D4099801E04FF0FF30BA
:104380001DB0BDE8F08F00BFC84F0008CE4F000839
:10439000D24F0008511D00080141000838B5064CF5
:1043A000002305460846236000F0F0FB431C02D1C1
:1043B000236803B12B6038BD4803002010B50C46BC
:1043C000B1F90E1000F0C6F80028ABBF636DA389E9
:1043D0001B1823F48053ACBF6365A38110BD2DE986
:1043E000F0411F468B89DB0505460C46164605D570
:1043F00002230022B1F90E1000F056F8A389B4F997
:104400000E1023F48053A38132463B462846BDE874
:10441000F041FCF799BA10B50C46B1F90E1000F056
:1044200043F8431CA38915BF606523F4805343F40C
:104430008053A38118BFA38110BDB1F90E1000F005
:1044400001B8000038B5064C002305460846236035
:1044500000F074FB431C02D1236803B12B6038BD0C
:104460004803002038B5074C00230546084611468E
:10447000236000F06BFB431C02D1236803B12B6067
:1044800038BD00BF4803002038B5064C0023054660
:104490000846236000F062FB431C02D1236803B18D
:1044A0002B6038BD4803002038B5074C0546084648
:1044B0001146002222601A4600F058FB431C02D12C
:1044C000236803B12B6038BD48030020884210B533
:1044D00001EB020301D8421E0BE09842FBD2811887
:1044E000D21AD34204D013F8014D01F8014DF8E778
:1044F00010BD994204D011F8014B02F8014FF8E7C2
:1045000010BD70477047F8B5074615460E4621B9ED
:104510001146BDE8F840FFF795BD1AB9FFF744FD15
:104520002846F8BD00F028F885420ED929463846BD
:10453000FFF788FD044650B131462A46FDF766FB79
:1045400031463846FFF730FD01E03046F8BD2046E1
:10455000F8BD000038B5074C054608461146002254
:1045600022601A4600F00AFB431C02D1236803B103
:104570002B6038BD4803002051F8040C0028BEBF52
:10458000091851F8043CC0180438704770B54FF052
:10459000FF0C4CF4E06C1CEA11541DBF1CEA1355CF
:1045A00094EA0C0F95EA0C0F00F0DEF82C4481EA37
:1045B000030621EA4C5123EA4C5350EA013518BF57
:1045C00052EA033541F4801143F4801338D0A0FB44
:1045D00002CE4FF00005E1FB02E506F00042E0FBF1
:1045E00003E54FF00006E1FB03569CF0000F18BFF7
:1045F0004EF0010EA4F1FF04B6F5007F64F540749F
:1046000004D25FEA4E0E6D4146EB060642EAC62131
:1046100041EA55514FEAC52040EA5E504FEACE2E9E
:10462000B4F1FD0C88BFBCF5E06F1ED8BEF1004FA1
:1046300008BF5FEA500E50F1000041EB045170BD1D
:1046400006F0004646EA010140EA020081EA030161
:10465000B4EB5C04C2BFD4EB0C0541EA045170BD5D
:1046600041F480114FF0000E013C00F3AB8014F1D7
:10467000360FDEBF002001F0004170BDC4F1000420
:10468000203C35DA0C341BDC04F11404C4F12005A1
:1046900000FA05F320FA04F001FA05F240EA0200FC
:1046A00001F0004221F0004110EBD37021FA04F632
:1046B00042EB06015EEA430E08BF20EAD37070BDEC
:1046C000C4F10C04C4F1200500FA04F320FA05F04B
:1046D00001FA04F240EA020001F0004110EBD3704D
:1046E00041F100015EEA430E08BF20EAD37070BDBD
:1046F000C4F1200500FA05F24EEA020E20FA04F396
:1047000001FA05F243EA020321FA04F001F0004144
:1047100021FA04F220EA020000EBD3705EEA430EB5
:1047200008BF20EAD37070BD94F0000F0FD101F0E4
:104730000046400041EB010111F4801F08BF013C1D
:10474000F7D041EA060195F0000F18BF704703F05B
:104750000046520043EB030313F4801F08BF013DE2
:10476000F7D043EA0603704794EA0C0F0CEA13559E
:1047700018BF95EA0C0F0CD050EA410618BF52EA58
:104780004306D1D181EA030101F000414FF000005E
:1047900070BD50EA410606BF1046194652EA43066C
:1047A00019D094EA0C0F02D150EA013613D195EAE0
:1047B0000C0F05D152EA03361CBF104619460AD128
:1047C00081EA030101F0004141F0FE4141F4700132
:1047D0004FF0000070BD41F0FE4141F4780170BD22
:1047E00070B54FF0FF0C4CF4E06C1CEA11541DBF87
:1047F0001CEA135594EA0C0F95EA0C0F00F0A7F889
:10480000A4EB050481EA030E52EA03354FEA0131B5
:1048100000F088804FEA03334FF0805545EA1313C8
:1048200043EA12634FEA022245EA111545EA106590
:104830004FEA00260EF000419D4208BF964244F127
:10484000FD0404F5407402D25B084FEA3202B61A46
:1048500065EB03055B084FEA32024FF480104FF41A
:10486000002CB6EB020E75EB030E22BFB61A75468E
:1048700040EA0C005B084FEA3202B6EB020E75EB21
:10488000030E22BFB61A754640EA5C005B084FEA89
:104890003202B6EB020E75EB030E22BFB61A754656
:1048A00040EA9C005B084FEA3202B6EB020E75EB61
:1048B000030E22BFB61A754640EADC0055EA060E22
:1048C00018D04FEA051545EA16754FEA06164FEA65
:1048D000C30343EA52734FEAC2025FEA1C1CC0D111
:1048E00011F4801F0BD141EA00014FF000004FF09E
:1048F000004CB6E711F4801F04BF01430020B4F15F
:10490000FD0C88BFBCF5E06F3FF6AFAEB5EB030C16
:1049100004BFB6EB020C5FEA500C50F1000041EB13
:10492000045170BD0EF0004E4EEA113114EB5C04E0
:10493000C2BFD4EB0C0541EA045170BD41F48011B3
:104940004FF0000E013C90E645EA060E8DE60CEABB
:10495000135594EA0C0F08BF95EA0C0F3FF43BAFD8
:1049600094EA0C0F0AD150EA01347FF434AF95EA8F
:104970000C0F7FF425AF104619462CE795EA0C0F73
:1049800006D152EA03353FF4FDAE1046194622E740
:1049900050EA410618BF52EA43067FF4C5AE50EA1A
:1049A00041047FF40DAF52EA43057FF4EBAE12E70A
:1049B0004FF0FF3C06E000BF4FF0010C02E000BFEB
:1049C0004FF0010C4DF804CD4FEA410C7FEA6C5CCE
:1049D0004FEA430C18BF7FEA6C5C1BD001B050EA71
:1049E000410C0CBF52EA430C91EA030F02BF90EA5C
:1049F000020F0020704710F1000F91EA030F58BF1B
:104A0000994208BF90422CBFD8176FEAE37040F07C
:104A1000010070474FEA410C7FEA6C5C02D150EA1A
:104A2000013C07D14FEA430C7FEA6C5CD6D152EAD5
:104A3000033CD3D05DF8040B704700BF844610469A
:104A400062468C461946634600E000BF01B5FFF799
:104A5000B7FF002848BF10F1000F01BD4DF808ED69
:104A6000FFF7F4FF0CBF012000205DF808FB00BF3A
:104A70004DF808EDFFF7EAFF34BF012000205DF894
:104A800008FB00BF4DF808EDFFF7E0FF94BF0120E1
:104A900000205DF808FB00BF4DF808EDFFF7CEFFE2
:104AA00094BF012000205DF808FB00BF4DF808ED21
:104AB000FFF7C4FF34BF012000205DF808FB00BFF2
:104AC0004FEA410C7FEA6C5C02D150EA013C0AD10A
:104AD0004FEA430C7FEA6C5C02D152EA033C02D1FC
:104AE0004FF0000070474FF0010070474FEA41025D
:104AF00012F5001215D211D56FF47873B3EB625230
:104B000012D94FEAC12343F0004343EA505311F056
:104B1000004F23FA02F018BF404270474FF00000E8
:104B2000704750EA013005D111F0004008BF6FF026
:104B3000004070474FF00000704700BF024B582202
:104B40001A604FF0FF30704748030020024B582294
:104B50001A604FF0FF30704748030020024B582284
:104B60001A600020704700BF48030020024B582203
:104B70001A604FF0FF30704748030020024B582264
:104B80001A604FF0FF30704748030020044B19684B
:104B9000024609B903491960186802441A6070474F
:104BA000FC00002050030020FEE70000F8B500BF25
:104BB000F8BC08BC9E467047F8B500BFF8BC08BCFE
:104BC0009E4670470000000000005F5F0000000785
:104BD000000700147F147F14242A7F2A122313084D
:104BE000646236495522500005030000001C224132
:104BF000000041221C0014083E081408083E080862
:104C0000005030000008080808080060600000201C
:104C1000100804023E5149453E00427F4000426177
:104C200051494622494949361814127F102F4949E3
:104C300049313E4949493203017109073649494919
:104C400036264949493E00363600000056360000F7
:104C500008142241001414141414004122140802F0
:104C600001510906324979413E7C0A090A7C7F4993
:104C70004949363E414141227F4141413E7F4949B8
:104C800049417F090909013E4149497A7F080808DD
:104C90007F00417F4100304040403F7F0814224167
:104CA0007F404040407F020C027F7F0204087F3E2D
:104CB0004141413E7F090909063E4151215E7F097C
:104CC000090976264949493201017F01013F4040E7
:104CD000403F1F2040201F3F4038403F63140814CE
:104CE00063030478040361514945437F4141000057
:104CF00002040810200041417F0004020102044028
:104D000040404040000102040020545454787F4841
:104D10004444383844444420384444487F38545448
:104D20005418087E0901020C5252523E7F080404B6
:104D30007800447D40002040443D007F102844001E
:104D400000417F40007C041804787C080404783813
:104D5000444444387C14141408081414187C7C0847
:104D60000404084854545420043F4440203C40402C
:104D7000207C1C2040201C3C4038403C442810280B
:104D8000440C5050503C4464544C4400083641009C
:104D900000007F00000041360800080408100800E9
:104DA000414443202D20436820313A2025312E36BE
:104DB00066200000414443202D20436820323A20E1
:104DC00025312E36662000004469676974616C20C5
:104DD000496E737472756D656E746174696F6E007F
:104DE00047726F7570203600496E697469616C692D
:104DF00073696E6720616C6C2068617264776172A0
:104E00006520636F6D706F6E656E747300000000D7
:104E10004300000034000020494E4600696E6600E1
:104E20004E414E006E616E00300030313233343509
:104E30003637383941424344454600303132333405
:104E4000353637383961626364656600496E666974
:104E50006E697479004E614E000000000000000091
:104E60000000000000000000000000000000000042
:104E70000000000000000000000000000000000032
:104E80000000000000000000000000000000000022
:104E90000000000000000000000000000000000012
:104EA0000000000000000000000000000000000002
:104EB000000000000000000000000000504F5349B7
:104EC00058002E0000000000000000000000F03F2D
:104ED00000000000000024400000000000005940D5
:104EE0000000000000408F40000000000088C34028
:104EF00000000000006AF8400000000080842E419D
:104F000000000000D01263410000000084D79741E8
:104F10000000000065CDCD41000000205FA00242EE
:104F2000000000E876483742000000A2941A6D4263
:104F3000000040E59C30A2420000901EC4BCD64256
:104F400000003426F56B0C430080E03779C3414301
:104F500000A0D8855734764300C84E676DC1AB4377
:104F6000003D9160E458E143408CB5781DAF154495
:104F700050EFE2D6E41A4B4492D54D06CFF0804470
:104F8000F64AE1C7022DB544B49DD9794378EA4485
:104F900005000000190000007D0000000000000076
:104FA0000080E03779C34143176E05B5B5B8934625
:104FB000F5F93FE9034F384D321D30F94877825AF1
:104FC0003CBF737FDD4F1575232D302B2000686C9F
:104FD0004C00656667454647000000000000000081
:084FE00004B2FF7F0100000094
:104FE8000000010002000400060008000A000C008E
:104FF80010002000400080000001000000000000B8
:105008000102030401020304060708093333C842F6
:105018003333C842000000005C4E00087C4E000894
:105028009C4E000800000000000000000000000086
:1050380000000000104E0008000000000000000002
:105048000000000000000000000000000000000058
:105058000000000000000000000000000000000048
:105068000000000000000000000000000000000038
:105078000000000034000020C24E0008CD4F000898
:10508800CD4F0008CD4F0008CD4F0008CD4F000888
:10509800CD4F0008CD4F0008CD4F0008CD4F000878
:1050A800FFFFFFFFFFFFFFFFFFFFFFFFFFFF000006
:0850B800AD01000889010008A8
:0400000508000000EF
:00000001FF
