:020000040800F2
:10000000004000201D110008631100086511000860
:1000100067110008691100086B110008000000005A
:100020000000000000000000000000006D1100084A
:100030006F11000800000000711100087311000822
:100040007511000877110008791100087B1100086C
:100050007D1100087F11000881110008831100083C
:100060008511000887110008891100088B1100080C
:100070008D1100088F1100089111000893110008DC
:100080009511000897110008991100089B110008AC
:100090009D1100089F110008A1110008A31100087C
:1000A000A5110008A7110008A9110008AB1100084C
:1000B00039100008AF110008B1110008B311000891
:1000C000B5110008B7110008B9110008BB110008EC
:1000D000BD110008BF110008C1110008C3110008BC
:1000E000C5110008C7110008C9110008CB1100088C
:1000F000CD110008CF110008D1110008D31100085C
:10010000000000000000000000000000D511000801
:10011000D7110008D9110008DB110008DD11000813
:10012000DF110008E1110008E3110008E5110008E3
:10013000E7110008E91100080000000000000000BD
:10014000EB110008ED110008EF110008000000009D
:10015000000000000000000000000000000000009F
:100160000000000000000000F1110008F311000879
:10017000F511000800000000000000000000000071
:1001800000000000F711000810B5054C237833B9C2
:10019000044B13B10448AFF300800123237010BD5A
:1001A0009C0000200000000098280008084B10B5B3
:1001B0001BB108490848AFF300800848036803B939
:1001C00010BD074B002BFBD0BDE81040184700BF07
:1001D00000000000A0000020982800089C000020DB
:1001E00000000000154B002B08BF134B9D46A3F5E4
:1001F000803A00218B460F461348144A121A01F028
:10020000D2F80F4B002B00D098470E4B002B00D09C
:1002100098470020002104000D000D48002802D05E
:100220000C48AFF3008001F08DF82000290000F0A9
:100230006FFF01F073F800BF0000080000400020CD
:1002400000000000000000009C00002010030020BF
:100250000000000000000000F0B401F10C021CCA14
:100260000F684D688E683D4335432A43C66842EAAD
:1002700003058A69074B2C43224333401343C36071
:100280000A7F036B013A23F00F0313430363F0BCAF
:10029000704700BF07C0FFFD002301220277036003
:1002A00043608360C360036143618361704700BF43
:1002B000836819B943F002038360704743F0010378
:1002C00083607047836843F000438360704700BFDA
:1002D000836823F08043836083681943816070479B
:1002E0008068C00F704700BF8068C0F3400070474F
:1002F000836823F040538360836819B943F0005347
:100300008360704743F0805383607047042A30B4A1
:100310001FD802EB42025200056B1F24944025EACD
:10032000040401FA02F222430263092922D80139A6
:100330004269446901EB410138228A4024EA020201
:1003400042614269033103FA01F11143416130BC5A
:100350007047092A1ED8053A02EB42025200456B4B
:100360001F24944025EA040401FA02F222430929D9
:100370004263DCD90A398269846901EB41010722B1
:100380008A4024EA0202826182698B4013438361BE
:1003900030BC70470E2A0DD80A3A02EB42025200D6
:1003A000856B1F24944025EA040401FA02F22243DB
:1003B0008263BAE70F3A02EB42025200C56B1F2478
:1003C000944025EA040401FA02F22243C263ACE736
:1003D000836843F004038360704700BF006C80B201
:1003E000704700BF03680B4214BF01200020704714
:1003F0000022F0B513460126032704E00133102B39
:1004000002F1020224D00D6806FA03F434EA05056D
:10041000F4D10D79013D012D07FA02F519D9ED430B
:100420000468254005600C79056894402C430460FD
:10043000C46807FA02F524EA0504C460CC79C568EB
:10044000944001332C43102BC46002F10202DAD134
:10045000F0BDD0F808E007FA02F5ED430EEA050E0C
:10046000C0F808E091F805E0D0F808C00EFA02FEE6
:100470004EEA0C0EC0F808E0B0F804E01FFA8EFE59
:100480002EEA040484808C79B0F804E09C4044EAAD
:100490000E04A4B28480C3E700234FF6FF7102224A
:1004A0000160427103718371C3717047C3785BB996
:1004B000037817485A09203203F01F03012101FA7B
:1004C00003F340F822307047F0B4124B8278D968B9
:1004D000467804780E4DC943C1F302210F23C1F1C0
:1004E0000407CB40BE401340334304F1604202F5A1
:1004F00061421B01DBB282F800330378012203F072
:100500001F015B098A4045F82320F0BC704700BFFB
:1005100000E100E000ED00E0F0B5A14A536803F00F
:100520000C03042B02D0082B00F0F5809D4A0260DA
:1005300000259B4CDFF874C26368DFF874E2C3F3F4
:1005400003131CF80370FFB222FA07F343606168DB
:10055000C1F302211CF8011023FA01F181606668E1
:10056000C6F3C2261CF80660F6B2F340C360E46A24
:10057000C4F304143EF81440A4B214F0100F1CBFCE
:10058000B5FBF4F40461864C08BF0261E46AC4F36D
:1005900044243EF81440A4B214F0100F1CBFB5FB65
:1005A000F4F444617E4C08BF4261246BE4065CBFF6
:1005B0007C4C84617A4C48BF8261246BA4065CBF8A
:1005C000784CC461764C48BFC261D4F830E01EF468
:1005D000807F49D0954200F0B8800362246B43626B
:1005E0006F4C256BAD0711D0236B03F00303012B78
:1005F00000F0B680236B03F00303022B00F0BB80F6
:10060000236B03F00303032B01D1664B8362644B1E
:100610001C6B14F4403F31D1C162614B1C6B14F46C
:10062000402F44D101635E4B1C6B14F4401F57D123
:1006300041635B4B1C6B14F4400F6AD0196B01F4DF
:100640004001B1F5800F00F091801A6B02F4400276
:10065000B2F5000F00F09F801B6B03F44003B3F56D
:10066000400F00F08580F0BD0362246BA405B6D571
:100670009542B4D1B742B2D155006FE01C6B04F47F
:100680004034B4F5803F5AD01C6B04F44034B4F5C8
:10069000003F78D01B6B03F44033B3F5403F04BFF9
:1006A000404BC3623E4B1C6B14F4402FBAD01C6B02
:1006B00004F44024B4F5802F45D01C6B04F440248E
:1006C000B4F5002F5BD01B6B03F44023B3F5402F30
:1006D00004BF344B0363324B1C6B14F4401FA7D090
:1006E0001C6B04F44014B4F5801F2AD01C6B04F476
:1006F0004014B4F5001F4AD01B6B03F44013B3F54C
:10070000401F04BF274B4363254B1C6B14F4400F61
:1007100094D18163F0BD55685368C5F38345DB030D
:1007200005F102011ED5D36A1E4D03F00F030133FC
:10073000B5FBF3F301FB03F505602A46F9E6C26257
:100740006BE7426375E702636DE7B7427FF445AF3D
:1007500055000562246BA6057FF541AF45623FE772
:10076000826254E7104B03FB01F5E5E78263F0BDBD
:100770000C4B8363F0BD4FF40043836247E74FF4B3
:10078000004303634FE74FF40043C36245E74FF470
:10079000004343634DE74FF400438363F0BD00BF64
:1007A0000010024000127A0000093D001C000020E9
:1007B00000000020064A030FD36A14BF23F47853C5
:1007C00023F4F873D362024AD36A1843D0627047A5
:1007D0000010024029B9054A536923EA000050611C
:1007E0007047024B5A69104358617047001002402D
:1007F00029B9054AD36923EA0000D0617047024B4A
:10080000DA691043D86170470010024001737047E5
:100810000389194214BF012000207047264A03882B
:1008200090429BB238D002F50062904234D0B0F1D1
:10083000804F31D0A2F5983290422DD002F58062DF
:10084000904229D01D4A90422DD002F580629042FC
:1008500029D00A8923F440739BB2134303804B6869
:10086000C36210B4144C0B880385A0420ED0144B05
:1008700098420BD003F54063984207D003F580639C
:10088000984203D003F58063984201D18B7A0386A6
:100890000123436110BC70474A8823F0700313435F
:1008A000064A9042D1D103804B68C3620B8803850E
:1008B00001234361704700BF002C0140001000403D
:1008C0000034014000234FF0FF3242600380038177
:1008D00043808372704700BF038829B923F0010366
:1008E0001B041B0C038070479BB243F00103038081
:1008F000704700BFC94389B2016170472AB9C36814
:10090000C94389B21940C1607047C3681943C160C7
:10091000704700BFFFF7F2BFC1F3080101857047C0
:10092000C3690B4214BF012000207047014608B57F
:100930000448FFF7F1FF80210248FFF7F1FF00288C
:10094000F9D008BD0044004070B51E1E13DD1446EA
:10095000951903E0FFF7EAFFAC420CD014F8010B45
:100960000A28F7D10D20FFF7E1FF14F8010CFFF77B
:10097000DDFFAC42F2D1304670BD00BF70B5454ED0
:10098000454C336890B005460021986800F076FD2C
:1009900033680021586800F071FD404A536943F400
:1009A00000335361D1694FF0904341F40031D1617C
:1009B0001A6A22F470621A621A6A42F4E0621A62D7
:1009C0001A6A22F470421A621A6A42F4E0421A6207
:1009D0009A6822F0F0029A609A6842F050029A6097
:1009E0009A8822F00C021204120C9A809A8892B211
:1009F0009A801A6822F0F0021A601A6842F0A00287
:100A00001A60DA6822F0F002DA60DA6842F0500226
:100A1000DA60236823F001032360636823F4405302
:100A2000636063686360236823F4B05323F00C03AE
:100A300023602368236023682360236843F00C034A
:100A40002360A36823F44073A360A368A36001A894
:100A5000FFF762FD23680C9A190448BF5200B2FBED
:100A6000F5F305FB1322B2EB550F0B4A126828BFB2
:100A70000133120405D54FF6F0721A40C3F3420356
:100A80001343054A9BB29381136843F0010313603B
:100A900010B070BD900000200044004000100240E3
:100AA00010B50F4A938A23F040031B041B0C044625
:100AB000938202210B48FFF7ABFE0128F9D12146B2
:100AC0000848FFF7A3FE02210648FFF7A1FE012810
:100AD000F9D1034A938A9BB243F04003938210BD3D
:100AE0000004004800380040F8B54FF09044064636
:100AF000A38A23F480731B041B0CA3820020FFF73E
:100B0000CFFF1020FFF7CCFFB020FFF7C9FFA38A6B
:100B10009BB243F48073A382751E06F17F0415F81F
:100B2000010FFFF7BDFFAC42F9D14FF09045002017
:100B3000AB8A23F480731B041B0CAB82FFF7B0FF5E
:100B40001020FFF7ADFFB120FFF7AAFFAB8A9BB2E1
:100B500043F48073AB8206F1FF0514F8010FFFF731
:100B60009FFFA542F9D14FF090440020A38A23F4BF
:100B700080731B041B0CA382FFF792FF1020FFF76A
:100B80008FFFB220FFF78CFFA38A9BB243F48073E0
:100B9000A38206F27F1415F8010FFFF781FFA5422B
:100BA000F9D14FF090470020BB8A23F480731B04D7
:100BB0001B0CBB82FFF774FF1020FFF771FFB320FF
:100BC000FFF76EFFBB8A9BB243F4807306F2FF15FA
:100BD000BB8214F8010FFFF763FFAC42F9D1F8BDF7
:100BE00008B54FF09041264A8B8A23F480731B048A
:100BF0001B0C8B82938A9BB243F040039382938AAF
:100C000023F480431B041B0C938241F2482300BF52
:100C1000013BFCD11A491B4B8A8A92B242F48042B2
:100C20008A8200BF013BFCD14FF09042AE20938AF4
:100C300023F480731B041B0C9382FFF731FFA22067
:100C4000FFF72EFFA020FFF72BFFC820FFF728FF9C
:100C50002220FFF725FF2F20FFF722FF4020FFF77C
:100C60001FFFAF20FFF71CFF8120FFF719FF1720A0
:100C7000FFF716FFA620BDE80840FFF711BF00BF31
:100C80000004004870F3050010B46749674B4869D9
:100C9000674A40F4C0204861C86940F48040C86198
:100CA000596A21F470015962596A41F4A0015962EC
:100CB000596A21F070415962596A41F0A041596264
:100CC000996821F04C419960996841F08841996098
:100CD000998845F6FF7001409980998889B299807A
:100CE000196821F04C411960196841F008411960F8
:100CF000D96821F04C41D960D968D960996821F050
:100D000030219960996841F010219960998821F407
:100D1000804121F040010904090C9980998889B229
:100D20009980196821F030211960196841F010216B
:100D30001960D96821F03021D960D968D9604FF0A5
:100D4000904107208C68A40CA4048C608C6844F447
:100D500080348C608C8804F47E448C808C88A4B2AF
:100D60008C800C68A40CA4040C600C6844F48034DF
:100D70000C600C6824F0F0040C600C6844F0A004D3
:100D80000C60CC68A40CA404CC60CC68CC60998ABC
:100D900089B241F040019982138803F441531380D2
:100DA00013889BB2138013889BB243F48273138021
:100DB00013889BB243F00203138013889BB243F065
:100DC0000103138013889BB243F4007313801388CC
:100DD0009BB243F00803138013889BB2138093885F
:100DE00023F470631B041B0C938093889BB243F421
:100DF000E0639380938B23F400631B041B0C9383A9
:100E00001082938823F480531B041B0C93809388D7
:100E10009BB243F48053938013889BB243F040030A
:100E2000138010BCFFF7DCBE001002400004004835
:100E300000380040002A35D003789BB3F0B5002776
:100E400002443E46184D01E0037853B3203B03EBC8
:100E50008303CC19EB5CCB550378203B03EB830376
:100E60002B4486465B7863700378203B03EB830357
:100E70002B4406379B78A37010F8013B203B03EB13
:100E800083032B448242DB78E3709EF80030667166
:100E9000A3F1200303EB83032B44FFB21B792371DF
:100EA000D2D1F0BD704700BFB8250008F0B5C1B081
:100EB000154607460E4668464FF4807200211C46D0
:100EC00000F071FA38466946FF22FFF7B3FF05EBE1
:100ED000C4103044C5F18002694600F059FA41B0AF
:100EE000F0BD00BF70B54FF4A0708AB0FFF762FC90
:100EF00001214FF08050FFF76DFC01214FF40030CD
:100F0000FFF768FC6846FFF7C7FA03266946012425
:100F10004FF090408DF804600094FFF769FA68463E
:100F2000FFF7BAFA022569464FF090408DF8046049
:100F30000095FFF75DFA02A8FFF7AEF9002302A9BA
:100F40004FF0A0408DF82450029303930493FFF7D1
:100F500083F921464FF0A040FFF7AAF901214FF095
:100F6000A040FFF73FFA0028F8D001214FF0A04041
:100F7000FFF7BEF900214FF0A040FFF799F94FF0BD
:100F8000A040FFF7B1F90028F9D101464FF0A04089
:100F9000FFF79EF94FF0A040FFF794F94FF0A04003
:100FA000FFF79EF90028F9D101214FF0A040FFF78B
:100FB0007FF901214FF0A040FFF714FA0028F8D084
:100FC0000AB070BD012808B54FF0000317D04FF0EC
:100FD000A04001220221FFF799F94FF0A040FFF74E
:100FE000F7F904214FF0A040FFF7FCF90028F8D0F2
:100FF0004FF0A040FFF7F2F90D4B188008BD0246F4
:1010000001464FF0A040FFF781F94FF0A040FFF7F5
:10101000DFF904214FF0A040FFF7E4F90028F8D0F1
:101020004FF0A040FFF7DAF9024B188008BD00BF6F
:101030002C0000202E00002008B50120FFF7C2FF81
:101040000220FFF7BFFF01214FF08040BDE80840BC
:10105000FFF750BC70B5164B164E1A881649174D3F
:10106000174C304600F0BCFA164B17491A88284630
:1010700000F0B6FA214600230A221448FFF716FFB3
:101080002146012328221248FFF710FF304621464F
:1010900002230F22FFF70AFF2846214603230F22CF
:1010A000FFF704FF2046BDE87040FFF71DBD00BFFD
:1010B0002E000020C802002094270008F80200201B
:1010C000C80000202C000020A4270008B427000836
:1010D000CC27000810B54FF416500B4CFFF74EFC10
:1010E0000A4800F0C3F9FFF7CFFD4FF4007200216A
:1010F000204600F058F92046FFF7F6FCFFF7F2FE15
:10110000BDE8104000F0D6B8C8000020D427000881
:1011100008B5FFF7DFFFFFF79DFFFCE70649074A29
:10112000074B9A42BEBF51F8040B42F8040BF8E794
:101130000448804704480047A42800080000002015
:101140009C00002001120008E50100082A492B4AF2
:10115000002301E041F8043B9142FBD3FFF7D8FFA5
:10116000FEE7FEE7FEE7FEE7FEE7FEE7FEE7FEE757
:10117000FEE7FEE7FEE7FEE7FEE7FEE7FEE7FEE747
:10118000FEE7FEE7FEE7FEE7FEE7FEE7FEE7FEE737
:10119000FEE7FEE7FEE7FEE7FEE7FEE7FEE7FEE727
:1011A000FEE7FEE7FEE7FEE7FEE7FEE7FEE7FEE717
:1011B000FEE7FEE7FEE7FEE7FEE7FEE7FEE7FEE707
:1011C000FEE7FEE7FEE7FEE7FEE7FEE7FEE7FEE7F7
:1011D000FEE7FEE7FEE7FEE7FEE7FEE7FEE7FEE7E7
:1011E000FEE7FEE7FEE7FEE7FEE7FEE7FEE7FEE7D7
:1011F000FEE7FEE7FEE7FEE79C000020100300206C
:1012000010B4274B274A18682749284C40F00100A2
:101210001860586802405A601A6822F0847222F4FA
:1012200080321A601A6822F480221A605A6822F406
:10123000FE025A60DA6A22F00F02DA621A6B0020AC
:10124000114012221963986022605A685A605A68E5
:101250005A605A6842F480625A605A6822F47C12DA
:101260005A605A6842F460125A601A6842F08072FA
:101270001A6019680A4A8901FBD5536823F00303F1
:101280005360536843F002035360536803F00C0348
:10129000082BFAD1064B4FF000629A6010BC7047E1
:1012A000001002400CC07FF8CCFC00FF0020024080
:1012B00000ED00E010B5012184B00846FFF798FA70
:1012C00001A8FFF7FFFA002301A9134AADF80C307B
:1012D0004FF080400124ADF80630ADF804300292A2
:1012E000FFF79CFA02231C2268468DF801308DF826
:1012F00002308DF800208DF80340FFF7D7F8224622
:1013000021464FF08040FFF705FB21464FF080401B
:10131000FFF7E2FA04B010BD6021600008B5074B8A
:10132000044613B10021AFF30080054B1868836AAF
:1013300003B19847204601F031F900BF00000000DA
:101340000028000870B50E4B0E4CE41AA4100025BE
:101350001E46A54204D056F8253098470135F8E7D7
:1013600001F01EF9084C094BE41AA41000251E4692
:10137000A54204D056F8253098470135F8E770BDEE
:101380009400002094000020980000209400002089
:1013900010B5431E0A44914204D011F8014B03F8E2
:1013A000014FF8E710BD02440346934202D003F810
:1013B000011BFAE77047000070B50E46054618B1EC
:1013C00083690BB900F0E4FAAB69AC6813B928463D
:1013D00000F0DEFA224B9C4201D16C6808E0214B00
:1013E0009C4201D1AC6803E01F4B9C4208BFEC68F3
:1013F000A3891B0701D523693BB92146284600F084
:1014000067F910B14FF0FF3070BD013EA36816F8C8
:10141000011F013BA36091B1002B04DAA269934242
:1014200006DB0A2904D023685A1C22601970EDE7F4
:101430002246284600F0F8F80130E7D1E2E7002B19
:1014400008DA22460A21284600F0EEF80130D9D009
:101450000A2070BD23680A205A1C2260187070BDD3
:10146000042800082428000844280008024B0146EC
:101470001868FFF7A1BF00BF9000002000294FF4BB
:1014800080630CBF0222002200F000B82DE9F74370
:101490001D464F4B1E6804460F46904626B1B36961
:1014A00013B9304600F074FA4A4B9C4201D174687B
:1014B00008E0494B9C4201D1B46803E0474B9C4291
:1014C00008BFF468B8F1020F04D0B8F1010F79D861
:1014D000002D77DB2146304600F0F0F9616B41B119
:1014E00004F14403994202D0304600F043FB00234C
:1014F00063630023A3616360A3891B0603D521698D
:10150000304600F037FBA38923F44A6323F003033A
:10151000B8F1020FA3811ED001AB6A4621463046C6
:1015200000F0C0FAA3891843A0810DB9009D00E026
:101530002FBB284600F016FB0746D0B9DDF8009017
:10154000A94502D14FF0FF3006E0484600F00AFB03
:10155000074678B9F6E70020A38943F00203A38188
:101560000023A36004F14703236023610123636127
:101570002AE0A946A38943F08003A3814D46B369BD
:1015800013B9304600F004FAB8F1010F08BFA3897F
:10159000276004BF43F00103A381A389276103F0FF
:1015A000080080B2656158B113F001034FF00000EC
:1015B0001DBF6D42A060A561A56008BF184603E08D
:1015C000A06001E04FF0FF3003B0BDE8F08300BF42
:1015D000900000200428000824280008442800085F
:1015E0000EB400B59CB04FF402711DABADF81410F1
:1015F000029006906FF000410A48049107914FF65F
:10160000FF7153F8042BADF816100068019302A97E
:1016100000F0B6FB029B00221A701CB05DF804EBD0
:1016200003B0704790000020F8B50F4614460646F8
:1016300018B183690BB900F0ABF9224B9C4201D180
:10164000746808E0204B9C4201D1B46803E01F4B52
:101650009C4208BFF468A369A360A3891A0709D54F
:1016600023693BB123682069181A63699842FDB267
:101670000FDB08E02146304600F02AF80028F1D0C0
:101680004FF0FF30F8BD2146304600F017F9002832
:10169000F6D1A368013BA36023685A1C22601F7027
:1016A0006269431C934204D0A389DB0707D50A2D46
:1016B00005D12146304600F001F90028E0D1284646
:1016C000F8BD00BF042800082428000844280008AA
:1016D000324B70B51D6806460C4625B1AB6913B98F
:1016E000284600F055F92E4B9C4201D16C6808E069
:1016F0002C4B9C4201D1AC6803E02B4B9C4208BFB1
:10170000EC68B4F90C309AB215071DD4D00602D497
:10171000092232603AE0510712D5616B41B104F100
:101720004403994202D0304600F024FA0023636358
:10173000A38923F02403A38100236360236923602A
:10174000A38943F00803A38123694BB9A38903F458
:101750002073B3F5007F03D02146304600F0C6F970
:10176000A28912F0010305D00023A36063695B42E4
:10177000A36103E0920758BF6369A36023695BB963
:10178000B4F90C3003F0800080B230B143F0400374
:10179000A3814FF0FF3070BD002070BD900000208D
:1017A0000428000824280008442800088A892DE914
:1017B000F041054610070C4659D44B68002B02DC5B
:1017C0000B6C002B17DDE66AAEB102F480520023E9
:1017D00092B22F682B600AB1606D15E0216A012377
:1017E0002846B047411C0FD12B686BB11D2B01D08F
:1017F000162B03D12F600020BDE8F081A38943F0B0
:101800004003A381BDE8F081A3895A0705D5636829
:10181000C01A636B0BB1236CC01A00230246E66A40
:10182000216A2846B047431CA38906D129681D298F
:101830003AD8214ACA40D60736D500226260D90478
:101840002269226004D5421C01D12B6803B960656E
:10185000616B2F600029CED004F14403994202D07D
:10186000284600F087F900206063BDE8F0810F6929
:10187000002FC0D093070E6808BF4B690F6018BFD8
:101880000023C7EB06088B6002E00744C0EB0808A2
:10189000B8F1000FAFDD43463A46216AA66A2846F2
:1018A000B0470028F1DCA38943F04003A3814FF047
:1018B000FF30BDE8F08100BF0100402038B50B6962
:1018C00005460C46DBB118B183690BB900F060F82E
:1018D0000C4B9C4201D16C6808E00B4B9C4201D13F
:1018E000AC6803E0094B9C4208BFEC68B4F90C30CB
:1018F0002BB121462846BDE83840FFF757BF0020EE
:1019000038BD00BF04280008242800084428000827
:10191000014900F0A9B800BFBD180008002310B5A8
:10192000044603604360836081814366C281036132
:1019300043618361194608225C30FFF734FD054B93
:101940006362054BA362054BE362054B246223638C
:1019500010BD00BFC1220008E32200081B230008BD
:101960003F23000870B568234D1E5D430E4605F108
:10197000740100F04DF9044640B1002180E84200B6
:101980000C30A06005F16802FFF70DFD204670BD28
:10199000836910B5044633BB8364C3640365124B8B
:1019A000124A1B688262984204BF0123836100F0DF
:1019B0001FF86060204600F01BF8A060204600F091
:1019C00017F80022E06004216068FFF7A7FF0122FA
:1019D0000921A068FFF7A2FF02221221E068FFF7A9
:1019E0009DFF0123A36110BD002800081119000804
:1019F000F8B51C4B1E68B369074613B93046FFF7AC
:101A0000C7FF4836B4687368013B04D4B4F90C507E
:101A10007DB16834F8E733680BB13668F2E704212A
:101A20003846FFF79FFF30600028F6D10C233B605B
:101A3000F8BD4FF6FF73E3810123A381656625603E
:101A4000A560656025616561A5610822294604F1EC
:101A50005C00FFF7A8FC6563A563A564E564204608
:101A6000F8BD00BF002800082DE9F84380468946EC
:101A700000F14804002694B1A5686768013F0CD4C2
:101A8000AB89012B07D9B5F90E30013303D02946B4
:101A90004046C84706436835F0E72468EBE7304620
:101AA000BDE8F88370B50E46B1F90E10002990B06C
:101AB00014461D4606DA00232B60B3891A060ED59C
:101AC00040230EE001AA00F04FFC0028F3DB029A4D
:101AD00002F47042A2F500535A425A412A604FF470
:101AE00080630020236010B070BD00008B8973B547
:101AF0009E0705460C4610D401AB6A46FFF7D2FF9D
:101B000000990646284600F083F868B9B4F90C300D
:101B10009A0522D443F00203A38104F14703236012
:101B200023610123636118E00D4BAB62A389206040
:101B300043F08003A381009B6361019B20614BB153
:101B4000B4F90E10284600F021FC18B1A38943F027
:101B50000103A381A0893043A08102B070BD00BF02
:101B600011190008024B0146186800F051B800BF77
:101B70009000002038B50546002946D051F8043CB5
:101B80000C1F002BB8BFE41800F08DFC1F4A13682F
:101B9000114613B96360146032E0A3420ED9226883
:101BA000A018834204BF18685B68636004BF121802
:101BB00022600C6024E0A24203D813465A68002A2F
:101BC000F9D118681918A1420BD12168014458189D
:101BD0008242196014D1106852685A600144196039
:101BE0000EE002D90C232B600AE0216860188242C3
:101BF00004BF10685268626004BF091821605C600D
:101C00002846BDE8384000F04FBC38BDBC0000207D
:101C100070B5CD1C25F0030508350C2D38BF0C25FB
:101C2000002D064601DBA94202D90C23336046E0B1
:101C300000F039FC234B1C681A462146A1B10B6801
:101C40005B1B0ED40B2B03D90B60CC18CD501EE0C0
:101C50008C420DBF63684B686360136018BF0C460D
:101C600015E00C464968E9E7174C23681BB9304674
:101C700000F016FB20602946304600F011FB431CA3
:101C800018D0C41C24F00304A0420DD125603046B6
:101C900000F00AFC04F10B00231D20F00700C31A1A
:101CA0000ED05A42E25070BD211A304600F0F8FAC8
:101CB0000130EBD10C233360304600F0F5FB0020FF
:101CC00070BD00BFBC000020B80000202DE9F04727
:101CD0008E689E4282460C46914698463ED88A8936
:101CE00012F4906F3AD0256809696F1A656902236A
:101CF00005EB450595FBF3F57B1C43449D4238BF3E
:101D00001D4653050FD52946FFF782FF064698B1B9
:101D10003A462169FFF73CFBA38923F4906343F023
:101D20008003A38113E02A4600F0BFFB064670B98A
:101D300021695046FFF71EFF0C23CAF80030A38923
:101D400043F04003A3814FF0FF30BDE8F0872661E8
:101D500065613E44ED1B2660A5604646464528BFAA
:101D6000464632464946206800F082FBA3689B1B2A
:101D7000A36023681E4426600020BDE8F0870000B1
:101D80002DE9F04F9DB0804603938B891C060D46CC
:101D900016460DD50B695BB94021FFF739FF286066
:101DA000286118B90C23C8F80030CDE040236B61DE
:101DB0000023099320238DF82930DFF89CB13023CC
:101DC0008DF82A3037463C4614F8013B1BB9B7EB77
:101DD000060910D003E0252BF9D02746F3E74B4640
:101DE000324629464046FFF771FF013000F0A780D8
:101DF000099B4B4409933B78002B00F0A080002303
:101E00004FF0FF3204930793059206938DF85330F9
:101E10001A930126052221784E4800F0D9FA671C52
:101E2000049B38B14B4A801A06FA00F0184304901C
:101E30003C46EFE7D90644BF20228DF853201A070D
:101E400044BF2B228DF8532022782A2A03D0079AE8
:101E500000210A200BE0039A111D12680391002A49
:101E600010DA524243F00200079204900BE027463A
:101E700001343B78303B092B03D800FB02320121AF
:101E8000F5E701B107923B782E2B1ED17B782A2BE8
:101E90000AD1039B1A1D1B680392002BB8BF4FF099
:101EA000FF330237059310E000230593781C194691
:101EB0000A24074601303A78303A092A03D804FB4D
:101EC00001210123F5E703B1059103223978224866
:101ED00000F07EFA40B14023CBEB000003FA00F0A3
:101EE000049B18430490013739781C488DF828105A
:101EF00006227E1C00F06CFA88B1194B33B9039BA3
:101F0000073323F007030833039314E003AB009374
:101F10002A46144B04A94046AFF3008007E003AB08
:101F200000932A460F4B04A9404600F093F8B0F105
:101F3000FF3F824603D0099B5344099342E7AB8994
:101F40005B0601D4099801E04FF0FF301DB0BDE8F9
:101F5000F08F00BF642800086A2800086E28000877
:101F600000000000CD1C00082DE9F04791461F46F7
:101F70000A698B68DDF820809342B8BF1346C9F820
:101F8000003091F8432006460C4612B10133C9F8DF
:101F900000302368990642BFD9F800300233C9F8EF
:101FA0000030256815F0060510D104F1190A07E084
:101FB0000123524639463046C04701301AD0013518
:101FC000E368D9F800209B1A9D42F1DB94F8433076
:101FD0002268003318BF012392060FD5E1185A1C5E
:101FE000302081F84300224494F8451082F84310D1
:101FF000023303E04FF0FF30BDE8F08704F1430205
:1020000039463046C0470130F4D02268D9F8005034
:10201000E36802F00602042A08BF5D1B2269A36878
:102020000CBF25EAE57500259342C4BF9B1AED1845
:102030004FF000091A344D4509D001232246394694
:102040003046C0470130D5D009F10109F3E700203F
:10205000BDE8F0872DE9F04317460A7E85B06E2A69
:10206000984606460C460C9B01F1430E00F0AE80EC
:1020700011D8632A22D009D8002A00F0BB80582A40
:1020800040F0CA8081F84520834955E0642A1ED07B
:10209000692A1CD0C0E0732A00F0B08009D86F2AEA
:1020A0002ED0702A40F0B8800A6842F020020A6000
:1020B0003EE0752A24D0782A3AD0ADE01A6801F1C2
:1020C0004205111D1960136884F84230A8E02168A8
:1020D0001A6811F0800F02D0111D196008E011F08C
:1020E000400F02F10401196002D0B2F9003000E0A3
:1020F0001368002B3CDA2D225B4284F8432037E042
:1021000021681A6811F0800F02D0111D196007E0D4
:1021100011F0400F02F10401196001D0138800E0B2
:102120001368227E5C496F2A14BF0A2208221BE032
:1021300078225A4984F845202268186812F0800FE6
:1021400000F104051D6003D1550601D5038800E0A8
:102150000368D00744BF42F0200222601BB9226806
:1021600022F0200222601022002084F8430001E0C7
:1021700049490A226568A560002D08DB206820F027
:10218000040020602BB9002D7DD175460CE0002B9A
:1021900079D07546B3FBF2F002FB1033CB5C05F847
:1021A000013D03460028F5D1082A0BD12368DA0740
:1021B00008D5236962689A42DEBF302305F8013CE6
:1021C00005F1FF35C5EB0E0323612EE008681A68A0
:1021D000496910F0800F03D0101D1860136808E0E3
:1021E00010F0400F02F104001860136801D019804C
:1021F00000E0196000232361754616E01A68111D7E
:102200001960156862680021284600F0E1F808B1FD
:10221000401B6060636804E004F1420584F84220DA
:1022200001232361002384F84330CDF800803B462E
:1022300003AA21463046FFF797FE013002D14FF046
:10224000FF3026E023692A4639463046C047013030
:10225000F5D023689B0710D5002504F1190907E084
:1022600001234A4639463046C0470130E7D00135A0
:10227000E368039A9B1A9D42F2DBE068039B984255
:10228000B8BF184605E00B7884F8423004F14205E7
:102290008AE705B0BDE8F0837528000886280008A5
:1022A00038B5064C002305460846236000F068F95F
:1022B000431C02D1236803B12B6038BD0C030020FE
:1022C00010B50C46B1F90E1000F016F90028ABBF9E
:1022D000636DA3891B1823F48053ACBF6365A3818E
:1022E00010BD2DE9F0411F468B89DB0505460C46E4
:1022F000164605D502230022B1F90E1000F056F85B
:10230000A389B4F90E1023F48053A38132463B46CF
:102310002846BDE8F041FEF717BB10B50C46B1F9F1
:102320000E1000F043F8431CA38915BF606523F429
:10233000805343F48053A38118BFA38110BDB1F92A
:102340000E1000F001B8000038B5064C0023054619
:102350000846236000F0ECF8431C02D1236803B167
:102360002B6038BD0C03002038B5074C0023054610
:1023700008461146236000F0E3F8431C02D12368AD
:1023800003B12B6038BD00BF0C03002038B5064CEC
:10239000002305460846236000F0DAF8431C02D10A
:1023A000236803B12B6038BD0C03002038B5074CFF
:1023B000054608461146002222601A4600F0D0F871
:1023C000431C02D1236803B12B6038BD0C030020ED
:1023D00001F0FF01102A2BDB10F0070F08D010F8D6
:1023E000013B013A8B422DD010F0070F42B3F6D1DA
:1023F000F0B441EA012141EA014122F007047FF0F3
:1024000000070023F0E80256083C85EA010586EA49
:10241000010685FA47F5A3FA87F586FA47F6A5FA85
:1024200087F68EB9EED1F0BC01F0FF0102F0070291
:1024300032B110F8013B013A83EA010313B1F8D13C
:102440000020704701387047002D06BF354603381D
:10245000073815F0010F07D1013015F4807F02BF56
:10246000013015F4C03F0130F0BC0138704700BFA7
:10247000884210B501EB020301D8421E0BE09842DE
:10248000FBD28118D21AD34204D013F8014D01F8BF
:10249000014DF8E710BD994204D011F8014B02F844
:1024A000014FF8E710BD70477047F8B5074615466D
:1024B0000E4621B91146BDE8F840FFF7A9BB1AB98D
:1024C000FFF758FB2846F8BD00F028F885420ED9E2
:1024D00029463846FFF79CFB044650B131462A4650
:1024E000FEF756FF31463846FFF744FB01E0304621
:1024F000F8BD2046F8BD000038B5074C0546084633
:102500001146002222601A4600F032F8431C02D124
:10251000236803B12B6038BD0C03002051F8040C74
:102520000028BEBF091851F8043CC0180438704791
:10253000024B58221A604FF0FF3070470C03002006
:10254000024B58221A604FF0FF3070470C030020F6
:10255000024B58221A600020704700BF0C03002075
:10256000024B58221A604FF0FF3070470C030020D6
:10257000024B58221A604FF0FF3070470C030020C6
:10258000044B1968024609B90349196018680244E6
:102590001A607047C000002010030020FEE7000012
:1025A000F8B500BFF8BC08BC9E467047F8B500BF40
:1025B000F8BC08BC9E4670470000000000005F5F4A
:1025C00000000007000700147F147F14242A7F2ACC
:1025D0001223130864623649552250000503000097
:1025E000001C2241000041221C0014083E0814086F
:1025F000083E08080050300000080808080800607D
:1026000060000020100804023E5149453E00427F10
:102610004000426151494622494949361814127F07
:10262000102F494949313E4949493203017109078F
:102630003649494936264949493E003636000000A8
:1026400056360000081422410014141414140041DA
:102650002214080201510906324979413E7C0A09D7
:102660000A7C7F494949363E414141227F414141EF
:102670003E7F494949417F090909013E4149497A5B
:102680007F0808087F00417F4100304040403F7F85
:10269000081422417F404040407F020C027F7F02AD
:1026A00004087F3E4141413E7F090909063E4151F0
:1026B000215E7F09090976264949493201017F01D6
:1026C000013F4040403F1F2040201F3F4038403FD7
:1026D0006314081463030478040361514945437F7C
:1026E0004141000002040810200041417F00040223
:1026F00001020440404040400001020400205454C4
:1027000054787F484444383844444420384444484A
:102710007F3854545418087E0901020C5252523E1C
:102720007F0804047800447D40002040443D007F41
:102730001028440000417F40007C041804787C0885
:1027400004047838444444387C14141408081414DD
:10275000187C7C080404084854545420043F444026
:10276000203C4040207C1C2040201C3C4038403C09
:1027700044281028440C5050503C4464544C4400AD
:102780000836410000007F000000413608000804C0
:1027900008100800414443202D20436820313A208E
:1027A00025642000414443202D20436820323A20F4
:1027B000256420004469676974616C20496E7374F4
:1027C00072756D656E746174696F6E0047726F75B6
:1027D00070203600496E697469616C6973696E674F
:1027E00020616C6C20686172647761726520636F30
:1027F0006D706F6E656E7473000000004300000022
:102800003000002000000000000000000000000078
:1028100000000000000000000000000000000000B8
:1028200000000000000000000000000000000000A8
:102830000000000000000000000000000000000098
:102840000000000000000000000000000000000088
:102850000000000000000000000000000000000078
:1028600000000000232D302B2000686C4C006566B2
:1028700067454647003031323334353637383941D1
:1028800042434445460030313233343536373839E7
:0C289000616263646566000000000000E7
:08289C0048D9FF7F0100000094
:1028A4000000010002000400060008000A000C00F9
:1028B4001000200040008000000100000000000023
:1028C400010203040102030406070809640064000A
:1028D40000000000042800082428000844280008F8
:1028E40000000000000000000000000000000000E4
:1028F400FC270008000000000000000000000000A9
:1029040000000000000000000000000000000000C3
:1029140000000000000000000000000000000000B3
:1029240000000000000000000000000000000000A3
:0C29340030000020AD01000889010008FF
:0400000508000000EF
:00000001FF
